{
  "address": "0x022e471e222502d59cd0817D19CA2C62F6715082",
  "abi": [
    {
      "inputs": [],
      "stateMutability": "nonpayable",
      "type": "constructor"
    },
    {
      "anonymous": false,
      "inputs": [
        {
          "indexed": true,
          "internalType": "address",
          "name": "owner",
          "type": "address"
        },
        {
          "indexed": true,
          "internalType": "address",
          "name": "approved",
          "type": "address"
        },
        {
          "indexed": true,
          "internalType": "uint256",
          "name": "tokenId",
          "type": "uint256"
        }
      ],
      "name": "Approval",
      "type": "event"
    },
    {
      "anonymous": false,
      "inputs": [
        {
          "indexed": true,
          "internalType": "address",
          "name": "owner",
          "type": "address"
        },
        {
          "indexed": true,
          "internalType": "address",
          "name": "operator",
          "type": "address"
        },
        {
          "indexed": false,
          "internalType": "bool",
          "name": "approved",
          "type": "bool"
        }
      ],
      "name": "ApprovalForAll",
      "type": "event"
    },
    {
      "anonymous": false,
      "inputs": [
        {
          "indexed": true,
          "internalType": "address",
          "name": "from",
          "type": "address"
        },
        {
          "indexed": true,
          "internalType": "address",
          "name": "to",
          "type": "address"
        },
        {
          "indexed": true,
          "internalType": "uint256",
          "name": "tokenId",
          "type": "uint256"
        }
      ],
      "name": "Transfer",
      "type": "event"
    },
    {
      "inputs": [],
      "name": "_mint",
      "outputs": [
        {
          "internalType": "uint256",
          "name": "",
          "type": "uint256"
        }
      ],
      "stateMutability": "nonpayable",
      "type": "function"
    },
    {
      "inputs": [
        {
          "internalType": "address",
          "name": "to",
          "type": "address"
        },
        {
          "internalType": "uint256",
          "name": "tokenId",
          "type": "uint256"
        }
      ],
      "name": "approve",
      "outputs": [],
      "stateMutability": "nonpayable",
      "type": "function"
    },
    {
      "inputs": [
        {
          "internalType": "address",
          "name": "owner",
          "type": "address"
        }
      ],
      "name": "balanceOf",
      "outputs": [
        {
          "internalType": "uint256",
          "name": "",
          "type": "uint256"
        }
      ],
      "stateMutability": "view",
      "type": "function"
    },
    {
      "inputs": [
        {
          "internalType": "uint256",
          "name": "tokenId",
          "type": "uint256"
        }
      ],
      "name": "getApproved",
      "outputs": [
        {
          "internalType": "address",
          "name": "",
          "type": "address"
        }
      ],
      "stateMutability": "view",
      "type": "function"
    },
    {
      "inputs": [],
      "name": "getTokenId",
      "outputs": [
        {
          "internalType": "uint256",
          "name": "",
          "type": "uint256"
        }
      ],
      "stateMutability": "view",
      "type": "function"
    },
    {
      "inputs": [
        {
          "internalType": "address",
          "name": "owner",
          "type": "address"
        },
        {
          "internalType": "address",
          "name": "operator",
          "type": "address"
        }
      ],
      "name": "isApprovedForAll",
      "outputs": [
        {
          "internalType": "bool",
          "name": "",
          "type": "bool"
        }
      ],
      "stateMutability": "view",
      "type": "function"
    },
    {
      "inputs": [],
      "name": "name",
      "outputs": [
        {
          "internalType": "string",
          "name": "",
          "type": "string"
        }
      ],
      "stateMutability": "view",
      "type": "function"
    },
    {
      "inputs": [
        {
          "internalType": "uint256",
          "name": "tokenId",
          "type": "uint256"
        }
      ],
      "name": "ownerOf",
      "outputs": [
        {
          "internalType": "address",
          "name": "",
          "type": "address"
        }
      ],
      "stateMutability": "view",
      "type": "function"
    },
    {
      "inputs": [
        {
          "internalType": "address",
          "name": "from",
          "type": "address"
        },
        {
          "internalType": "address",
          "name": "to",
          "type": "address"
        },
        {
          "internalType": "uint256",
          "name": "tokenId",
          "type": "uint256"
        }
      ],
      "name": "safeTransferFrom",
      "outputs": [],
      "stateMutability": "nonpayable",
      "type": "function"
    },
    {
      "inputs": [
        {
          "internalType": "address",
          "name": "from",
          "type": "address"
        },
        {
          "internalType": "address",
          "name": "to",
          "type": "address"
        },
        {
          "internalType": "uint256",
          "name": "tokenId",
          "type": "uint256"
        },
        {
          "internalType": "bytes",
          "name": "data",
          "type": "bytes"
        }
      ],
      "name": "safeTransferFrom",
      "outputs": [],
      "stateMutability": "nonpayable",
      "type": "function"
    },
    {
      "inputs": [
        {
          "internalType": "address",
          "name": "operator",
          "type": "address"
        },
        {
          "internalType": "bool",
          "name": "approved",
          "type": "bool"
        }
      ],
      "name": "setApprovalForAll",
      "outputs": [],
      "stateMutability": "nonpayable",
      "type": "function"
    },
    {
      "inputs": [
        {
          "internalType": "bytes4",
          "name": "interfaceId",
          "type": "bytes4"
        }
      ],
      "name": "supportsInterface",
      "outputs": [
        {
          "internalType": "bool",
          "name": "",
          "type": "bool"
        }
      ],
      "stateMutability": "view",
      "type": "function"
    },
    {
      "inputs": [],
      "name": "symbol",
      "outputs": [
        {
          "internalType": "string",
          "name": "",
          "type": "string"
        }
      ],
      "stateMutability": "view",
      "type": "function"
    },
    {
      "inputs": [
        {
          "internalType": "uint256",
          "name": "",
          "type": "uint256"
        }
      ],
      "name": "tokenURI",
      "outputs": [
        {
          "internalType": "string",
          "name": "",
          "type": "string"
        }
      ],
      "stateMutability": "pure",
      "type": "function"
    },
    {
      "inputs": [
        {
          "internalType": "address",
          "name": "from",
          "type": "address"
        },
        {
          "internalType": "address",
          "name": "to",
          "type": "address"
        },
        {
          "internalType": "uint256",
          "name": "tokenId",
          "type": "uint256"
        }
      ],
      "name": "transferFrom",
      "outputs": [],
      "stateMutability": "nonpayable",
      "type": "function"
    }
  ],
  "transactionHash": "0xbc940a645c54faf2e55bb12a0822ccbf0f5e0385a803a4835639c20891bb9c0d",
  "args": [],
  "numDeployments": 1,
  "solcInputHash": "3db1d4c7ea26480d2139b5f371145687",
  "bytecode": "0x60806040523480156200001157600080fd5b506040518060400160405280600a81526020017f307864796e616d697465000000000000000000000000000000000000000000008152506040518060400160405280600481526020017f24444e4d00000000000000000000000000000000000000000000000000000000815250816000908051906020019062000096929190620000c0565b508060019080519060200190620000af929190620000c0565b5050506000600681905550620001d5565b828054620000ce9062000170565b90600052602060002090601f016020900481019282620000f257600085556200013e565b82601f106200010d57805160ff19168380011785556200013e565b828001600101855582156200013e579182015b828111156200013d57825182559160200191906001019062000120565b5b5090506200014d919062000151565b5090565b5b808211156200016c57600081600090555060010162000152565b5090565b600060028204905060018216806200018957607f821691505b60208210811415620001a0576200019f620001a6565b5b50919050565b7f4e487b7100000000000000000000000000000000000000000000000000000000600052602260045260246000fd5b61246d80620001e56000396000f3fe608060405234801561001057600080fd5b50600436106100f55760003560e01c80636352211e11610097578063b88d4fde11610066578063b88d4fde14610284578063c0702d9c146102a0578063c87b56dd146102be578063e985e9c5146102ee576100f5565b80636352211e146101ea57806370a082311461021a57806395d89b411461024a578063a22cb46514610268576100f5565b8063081812fc116100d3578063081812fc14610166578063095ea7b31461019657806323b872dd146101b257806342842e0e146101ce576100f5565b8063010a38f5146100fa57806301ffc9a71461011857806306fdde0314610148575b600080fd5b61010261031e565b60405161010f9190611db9565b60405180910390f35b610132600480360381019061012d919061190e565b610328565b60405161013f9190611c1c565b60405180910390f35b61015061040a565b60405161015d9190611c37565b60405180910390f35b610180600480360381019061017b9190611968565b61049c565b60405161018d9190611bb5565b60405180910390f35b6101b060048036038101906101ab91906118ce565b6104e2565b005b6101cc60048036038101906101c791906117b8565b6105fa565b005b6101e860048036038101906101e391906117b8565b61065a565b005b61020460048036038101906101ff9190611968565b61067a565b6040516102119190611bb5565b60405180910390f35b610234600480360381019061022f919061174b565b610701565b6040516102419190611db9565b60405180910390f35b6102526107b9565b60405161025f9190611c37565b60405180910390f35b610282600480360381019061027d919061188e565b61084b565b005b61029e6004803603810190610299919061180b565b610861565b005b6102a86108c3565b6040516102b59190611db9565b60405180910390f35b6102d860048036038101906102d39190611968565b6108f3565b6040516102e59190611c37565b60405180910390f35b61030860048036038101906103039190611778565b610915565b6040516103159190611c1c565b60405180910390f35b6000600654905090565b60007f80ac58cd000000000000000000000000000000000000000000000000000000007bffffffffffffffffffffffffffffffffffffffffffffffffffffffff1916827bffffffffffffffffffffffffffffffffffffffffffffffffffffffff191614806103f357507f5b5e139f000000000000000000000000000000000000000000000000000000007bffffffffffffffffffffffffffffffffffffffffffffffffffffffff1916827bffffffffffffffffffffffffffffffffffffffffffffffffffffffff1916145b806104035750610402826109a9565b5b9050919050565b60606000805461041990611fa2565b80601f016020809104026020016040519081016040528092919081815260200182805461044590611fa2565b80156104925780601f1061046757610100808354040283529160200191610492565b820191906000526020600020905b81548152906001019060200180831161047557829003601f168201915b5050505050905090565b60006104a782610a13565b6004600083815260200190815260200160002060009054906101000a900473ffffffffffffffffffffffffffffffffffffffff169050919050565b60006104ed8261067a565b90508073ffffffffffffffffffffffffffffffffffffffff168373ffffffffffffffffffffffffffffffffffffffff16141561055e576040517f08c379a000000000000000000000000000000000000000000000000000000000815260040161055590611d79565b60405180910390fd5b8073ffffffffffffffffffffffffffffffffffffffff1661057d610a5e565b73ffffffffffffffffffffffffffffffffffffffff1614806105ac57506105ab816105a6610a5e565b610915565b5b6105eb576040517f08c379a00000000000000000000000000000000000000000000000000000000081526004016105e290611d99565b60405180910390fd5b6105f58383610a66565b505050565b61060b610605610a5e565b82610b1f565b61064a576040517f08c379a000000000000000000000000000000000000000000000000000000000815260040161064190611c59565b60405180910390fd5b610655838383610bb4565b505050565b61067583838360405180602001604052806000815250610861565b505050565b60008061068683610eae565b9050600073ffffffffffffffffffffffffffffffffffffffff168173ffffffffffffffffffffffffffffffffffffffff1614156106f8576040517f08c379a00000000000000000000000000000000000000000000000000000000081526004016106ef90611d59565b60405180910390fd5b80915050919050565b60008073ffffffffffffffffffffffffffffffffffffffff168273ffffffffffffffffffffffffffffffffffffffff161415610772576040517f08c379a000000000000000000000000000000000000000000000000000000000815260040161076990611d19565b60405180910390fd5b600360008373ffffffffffffffffffffffffffffffffffffffff1673ffffffffffffffffffffffffffffffffffffffff168152602001908152602001600020549050919050565b6060600180546107c890611fa2565b80601f01602080910402602001604051908101604052809291908181526020018280546107f490611fa2565b80156108415780601f1061081657610100808354040283529160200191610841565b820191906000526020600020905b81548152906001019060200180831161082457829003601f168201915b5050505050905090565b61085d610856610a5e565b8383610eeb565b5050565b61087261086c610a5e565b83610b1f565b6108b1576040517f08c379a00000000000000000000000000000000000000000000000000000000081526004016108a890611c59565b60405180910390fd5b6108bd84848484611058565b50505050565b60006108d1336006546110b4565b6001600660008282546108e49190611e62565b92505081905550600654905090565b60606040518060800160405280605781526020016123e1605791399050919050565b6000600560008473ffffffffffffffffffffffffffffffffffffffff1673ffffffffffffffffffffffffffffffffffffffff16815260200190815260200160002060008373ffffffffffffffffffffffffffffffffffffffff1673ffffffffffffffffffffffffffffffffffffffff16815260200190815260200160002060009054906101000a900460ff16905092915050565b60007f01ffc9a7000000000000000000000000000000000000000000000000000000007bffffffffffffffffffffffffffffffffffffffffffffffffffffffff1916827bffffffffffffffffffffffffffffffffffffffffffffffffffffffff1916149050919050565b610a1c816110d2565b610a5b576040517f08c379a0000000000000000000000000000000000000000000000000000000008152600401610a5290611d59565b60405180910390fd5b50565b600033905090565b816004600083815260200190815260200160002060006101000a81548173ffffffffffffffffffffffffffffffffffffffff021916908373ffffffffffffffffffffffffffffffffffffffff160217905550808273ffffffffffffffffffffffffffffffffffffffff16610ad98361067a565b73ffffffffffffffffffffffffffffffffffffffff167f8c5be1e5ebec7d5bd14f71427d1e84f3dd0314c0f7b2291e5b200ac8c7c3b92560405160405180910390a45050565b600080610b2b8361067a565b90508073ffffffffffffffffffffffffffffffffffffffff168473ffffffffffffffffffffffffffffffffffffffff161480610b6d5750610b6c8185610915565b5b80610bab57508373ffffffffffffffffffffffffffffffffffffffff16610b938461049c565b73ffffffffffffffffffffffffffffffffffffffff16145b91505092915050565b8273ffffffffffffffffffffffffffffffffffffffff16610bd48261067a565b73ffffffffffffffffffffffffffffffffffffffff1614610c2a576040517f08c379a0000000000000000000000000000000000000000000000000000000008152600401610c2190611c99565b60405180910390fd5b600073ffffffffffffffffffffffffffffffffffffffff168273ffffffffffffffffffffffffffffffffffffffff161415610c9a576040517f08c379a0000000000000000000000000000000000000000000000000000000008152600401610c9190611cd9565b60405180910390fd5b610ca78383836001611113565b8273ffffffffffffffffffffffffffffffffffffffff16610cc78261067a565b73ffffffffffffffffffffffffffffffffffffffff1614610d1d576040517f08c379a0000000000000000000000000000000000000000000000000000000008152600401610d1490611c99565b60405180910390fd5b6004600082815260200190815260200160002060006101000a81549073ffffffffffffffffffffffffffffffffffffffff02191690556001600360008573ffffffffffffffffffffffffffffffffffffffff1673ffffffffffffffffffffffffffffffffffffffff168152602001908152602001600020600082825403925050819055506001600360008473ffffffffffffffffffffffffffffffffffffffff1673ffffffffffffffffffffffffffffffffffffffff16815260200190815260200160002060008282540192505081905550816002600083815260200190815260200160002060006101000a81548173ffffffffffffffffffffffffffffffffffffffff021916908373ffffffffffffffffffffffffffffffffffffffff160217905550808273ffffffffffffffffffffffffffffffffffffffff168473ffffffffffffffffffffffffffffffffffffffff167fddf252ad1be2c89b69c2b068fc378daa952ba7f163c4a11628f55a4df523b3ef60405160405180910390a4610ea98383836001611239565b505050565b60006002600083815260200190815260200160002060009054906101000a900473ffffffffffffffffffffffffffffffffffffffff169050919050565b8173ffffffffffffffffffffffffffffffffffffffff168373ffffffffffffffffffffffffffffffffffffffff161415610f5a576040517f08c379a0000000000000000000000000000000000000000000000000000000008152600401610f5190611cf9565b60405180910390fd5b80600560008573ffffffffffffffffffffffffffffffffffffffff1673ffffffffffffffffffffffffffffffffffffffff16815260200190815260200160002060008473ffffffffffffffffffffffffffffffffffffffff1673ffffffffffffffffffffffffffffffffffffffff16815260200190815260200160002060006101000a81548160ff0219169083151502179055508173ffffffffffffffffffffffffffffffffffffffff168373ffffffffffffffffffffffffffffffffffffffff167f17307eab39ab6107e8899845ad3d59bd9653f200f220920489ca2b5937696c318360405161104b9190611c1c565b60405180910390a3505050565b611063848484610bb4565b61106f8484848461123f565b6110ae576040517f08c379a00000000000000000000000000000000000000000000000000000000081526004016110a590611c79565b60405180910390fd5b50505050565b6110ce8282604051806020016040528060008152506113d6565b5050565b60008073ffffffffffffffffffffffffffffffffffffffff166110f483610eae565b73ffffffffffffffffffffffffffffffffffffffff1614159050919050565b600181111561123357600073ffffffffffffffffffffffffffffffffffffffff168473ffffffffffffffffffffffffffffffffffffffff16146111a75780600360008673ffffffffffffffffffffffffffffffffffffffff1673ffffffffffffffffffffffffffffffffffffffff168152602001908152602001600020600082825461119f9190611eb8565b925050819055505b600073ffffffffffffffffffffffffffffffffffffffff168373ffffffffffffffffffffffffffffffffffffffff16146112325780600360008573ffffffffffffffffffffffffffffffffffffffff1673ffffffffffffffffffffffffffffffffffffffff168152602001908152602001600020600082825461122a9190611e62565b925050819055505b5b50505050565b50505050565b60006112608473ffffffffffffffffffffffffffffffffffffffff16611431565b156113c9578373ffffffffffffffffffffffffffffffffffffffff1663150b7a02611289610a5e565b8786866040518563ffffffff1660e01b81526004016112ab9493929190611bd0565b602060405180830381600087803b1580156112c557600080fd5b505af19250505080156112f657506040513d601f19601f820116820180604052508101906112f3919061193b565b60015b611379573d8060008114611326576040519150601f19603f3d011682016040523d82523d6000602084013e61132b565b606091505b50600081511415611371576040517f08c379a000000000000000000000000000000000000000000000000000000000815260040161136890611c79565b60405180910390fd5b805181602001fd5b63150b7a0260e01b7bffffffffffffffffffffffffffffffffffffffffffffffffffffffff1916817bffffffffffffffffffffffffffffffffffffffffffffffffffffffff1916149150506113ce565b600190505b949350505050565b6113e08383611454565b6113ed600084848461123f565b61142c576040517f08c379a000000000000000000000000000000000000000000000000000000000815260040161142390611c79565b60405180910390fd5b505050565b6000808273ffffffffffffffffffffffffffffffffffffffff163b119050919050565b600073ffffffffffffffffffffffffffffffffffffffff168273ffffffffffffffffffffffffffffffffffffffff1614156114c4576040517f08c379a00000000000000000000000000000000000000000000000000000000081526004016114bb90611d39565b60405180910390fd5b6114cd816110d2565b1561150d576040517f08c379a000000000000000000000000000000000000000000000000000000000815260040161150490611cb9565b60405180910390fd5b61151b600083836001611113565b611524816110d2565b15611564576040517f08c379a000000000000000000000000000000000000000000000000000000000815260040161155b90611cb9565b60405180910390fd5b6001600360008473ffffffffffffffffffffffffffffffffffffffff1673ffffffffffffffffffffffffffffffffffffffff16815260200190815260200160002060008282540192505081905550816002600083815260200190815260200160002060006101000a81548173ffffffffffffffffffffffffffffffffffffffff021916908373ffffffffffffffffffffffffffffffffffffffff160217905550808273ffffffffffffffffffffffffffffffffffffffff16600073ffffffffffffffffffffffffffffffffffffffff167fddf252ad1be2c89b69c2b068fc378daa952ba7f163c4a11628f55a4df523b3ef60405160405180910390a461166e600083836001611239565b5050565b600061168561168084611df9565b611dd4565b9050828152602081018484840111156116a1576116a0612097565b5b6116ac848285611f60565b509392505050565b6000813590506116c381612384565b92915050565b6000813590506116d88161239b565b92915050565b6000813590506116ed816123b2565b92915050565b600081519050611702816123b2565b92915050565b600082601f83011261171d5761171c612092565b5b813561172d848260208601611672565b91505092915050565b600081359050611745816123c9565b92915050565b600060208284031215611761576117606120a1565b5b600061176f848285016116b4565b91505092915050565b6000806040838503121561178f5761178e6120a1565b5b600061179d858286016116b4565b92505060206117ae858286016116b4565b9150509250929050565b6000806000606084860312156117d1576117d06120a1565b5b60006117df868287016116b4565b93505060206117f0868287016116b4565b925050604061180186828701611736565b9150509250925092565b60008060008060808587031215611825576118246120a1565b5b6000611833878288016116b4565b9450506020611844878288016116b4565b935050604061185587828801611736565b925050606085013567ffffffffffffffff8111156118765761187561209c565b5b61188287828801611708565b91505092959194509250565b600080604083850312156118a5576118a46120a1565b5b60006118b3858286016116b4565b92505060206118c4858286016116c9565b9150509250929050565b600080604083850312156118e5576118e46120a1565b5b60006118f3858286016116b4565b925050602061190485828601611736565b9150509250929050565b600060208284031215611924576119236120a1565b5b6000611932848285016116de565b91505092915050565b600060208284031215611951576119506120a1565b5b600061195f848285016116f3565b91505092915050565b60006020828403121561197e5761197d6120a1565b5b600061198c84828501611736565b91505092915050565b61199e81611eec565b82525050565b6119ad81611efe565b82525050565b60006119be82611e2a565b6119c88185611e40565b93506119d8818560208601611f6f565b6119e1816120a6565b840191505092915050565b60006119f782611e35565b611a018185611e51565b9350611a11818560208601611f6f565b611a1a816120a6565b840191505092915050565b6000611a32602d83611e51565b9150611a3d826120b7565b604082019050919050565b6000611a55603283611e51565b9150611a6082612106565b604082019050919050565b6000611a78602583611e51565b9150611a8382612155565b604082019050919050565b6000611a9b601c83611e51565b9150611aa6826121a4565b602082019050919050565b6000611abe602483611e51565b9150611ac9826121cd565b604082019050919050565b6000611ae1601983611e51565b9150611aec8261221c565b602082019050919050565b6000611b04602983611e51565b9150611b0f82612245565b604082019050919050565b6000611b27602083611e51565b9150611b3282612294565b602082019050919050565b6000611b4a601883611e51565b9150611b55826122bd565b602082019050919050565b6000611b6d602183611e51565b9150611b78826122e6565b604082019050919050565b6000611b90603d83611e51565b9150611b9b82612335565b604082019050919050565b611baf81611f56565b82525050565b6000602082019050611bca6000830184611995565b92915050565b6000608082019050611be56000830187611995565b611bf26020830186611995565b611bff6040830185611ba6565b8181036060830152611c1181846119b3565b905095945050505050565b6000602082019050611c3160008301846119a4565b92915050565b60006020820190508181036000830152611c5181846119ec565b905092915050565b60006020820190508181036000830152611c7281611a25565b9050919050565b60006020820190508181036000830152611c9281611a48565b9050919050565b60006020820190508181036000830152611cb281611a6b565b9050919050565b60006020820190508181036000830152611cd281611a8e565b9050919050565b60006020820190508181036000830152611cf281611ab1565b9050919050565b60006020820190508181036000830152611d1281611ad4565b9050919050565b60006020820190508181036000830152611d3281611af7565b9050919050565b60006020820190508181036000830152611d5281611b1a565b9050919050565b60006020820190508181036000830152611d7281611b3d565b9050919050565b60006020820190508181036000830152611d9281611b60565b9050919050565b60006020820190508181036000830152611db281611b83565b9050919050565b6000602082019050611dce6000830184611ba6565b92915050565b6000611dde611def565b9050611dea8282611fd4565b919050565b6000604051905090565b600067ffffffffffffffff821115611e1457611e13612063565b5b611e1d826120a6565b9050602081019050919050565b600081519050919050565b600081519050919050565b600082825260208201905092915050565b600082825260208201905092915050565b6000611e6d82611f56565b9150611e7883611f56565b9250827fffffffffffffffffffffffffffffffffffffffffffffffffffffffffffffffff03821115611ead57611eac612005565b5b828201905092915050565b6000611ec382611f56565b9150611ece83611f56565b925082821015611ee157611ee0612005565b5b828203905092915050565b6000611ef782611f36565b9050919050565b60008115159050919050565b60007fffffffff0000000000000000000000000000000000000000000000000000000082169050919050565b600073ffffffffffffffffffffffffffffffffffffffff82169050919050565b6000819050919050565b82818337600083830152505050565b60005b83811015611f8d578082015181840152602081019050611f72565b83811115611f9c576000848401525b50505050565b60006002820490506001821680611fba57607f821691505b60208210811415611fce57611fcd612034565b5b50919050565b611fdd826120a6565b810181811067ffffffffffffffff82111715611ffc57611ffb612063565b5b80604052505050565b7f4e487b7100000000000000000000000000000000000000000000000000000000600052601160045260246000fd5b7f4e487b7100000000000000000000000000000000000000000000000000000000600052602260045260246000fd5b7f4e487b7100000000000000000000000000000000000000000000000000000000600052604160045260246000fd5b600080fd5b600080fd5b600080fd5b600080fd5b6000601f19601f8301169050919050565b7f4552433732313a2063616c6c6572206973206e6f7420746f6b656e206f776e6560008201527f72206f7220617070726f76656400000000000000000000000000000000000000602082015250565b7f4552433732313a207472616e7366657220746f206e6f6e20455243373231526560008201527f63656976657220696d706c656d656e7465720000000000000000000000000000602082015250565b7f4552433732313a207472616e736665722066726f6d20696e636f72726563742060008201527f6f776e6572000000000000000000000000000000000000000000000000000000602082015250565b7f4552433732313a20746f6b656e20616c7265616479206d696e74656400000000600082015250565b7f4552433732313a207472616e7366657220746f20746865207a65726f2061646460008201527f7265737300000000000000000000000000000000000000000000000000000000602082015250565b7f4552433732313a20617070726f766520746f2063616c6c657200000000000000600082015250565b7f4552433732313a2061646472657373207a65726f206973206e6f74206120766160008201527f6c6964206f776e65720000000000000000000000000000000000000000000000602082015250565b7f4552433732313a206d696e7420746f20746865207a65726f2061646472657373600082015250565b7f4552433732313a20696e76616c696420746f6b656e2049440000000000000000600082015250565b7f4552433732313a20617070726f76616c20746f2063757272656e74206f776e6560008201527f7200000000000000000000000000000000000000000000000000000000000000602082015250565b7f4552433732313a20617070726f76652063616c6c6572206973206e6f7420746f60008201527f6b656e206f776e6572206f7220617070726f76656420666f7220616c6c000000602082015250565b61238d81611eec565b811461239857600080fd5b50565b6123a481611efe565b81146123af57600080fd5b50565b6123bb81611f0a565b81146123c657600080fd5b50565b6123d281611f56565b81146123dd57600080fd5b5056fe697066733a2f2f62616679626569673337696f6972373673376d67356f6f6265746e636f6a636d3363336878617379643472766964346a71687934676b61686567342f3f66696c656e616d653d302d5055472e6a736f6ea264697066735822122045a75ee04aca016113ab9cdbd609ea09cf24ef9f6182db0464b6c7187572445264736f6c63430008070033",
  "devdoc": {
    "kind": "dev",
    "methods": {
      "approve(address,uint256)": {
        "details": "See {IERC721-approve}."
      },
      "balanceOf(address)": {
        "details": "See {IERC721-balanceOf}."
      },
      "getApproved(uint256)": {
        "details": "See {IERC721-getApproved}."
      },
      "isApprovedForAll(address,address)": {
        "details": "See {IERC721-isApprovedForAll}."
      },
      "name()": {
        "details": "See {IERC721Metadata-name}."
      },
      "ownerOf(uint256)": {
        "details": "See {IERC721-ownerOf}."
      },
      "safeTransferFrom(address,address,uint256)": {
        "details": "See {IERC721-safeTransferFrom}."
      },
      "safeTransferFrom(address,address,uint256,bytes)": {
        "details": "See {IERC721-safeTransferFrom}."
      },
      "setApprovalForAll(address,bool)": {
        "details": "See {IERC721-setApprovalForAll}."
      },
      "supportsInterface(bytes4)": {
        "details": "See {IERC165-supportsInterface}."
      },
      "symbol()": {
        "details": "See {IERC721Metadata-symbol}."
      },
      "transferFrom(address,address,uint256)": {
        "details": "See {IERC721-transferFrom}."
      }
    },
    "version": 1
  },
  "userdoc": {
    "kind": "user",
    "methods": {
      "_mint()": {
        "notice": "For this minting we need two params, 1. The Msg.sender 2. tokenId, and the token Id need to be unique based on the amount of NFTs we have on the contract."
      }
    },
    "version": 1
  },
  "storageLayout": {
    "storage": [
      {
        "astId": 25,
        "contract": "contracts/basicNft.sol:BasicNft",
        "label": "_name",
        "offset": 0,
        "slot": "0",
        "type": "t_string_storage"
      },
      {
        "astId": 27,
        "contract": "contracts/basicNft.sol:BasicNft",
        "label": "_symbol",
        "offset": 0,
        "slot": "1",
        "type": "t_string_storage"
      },
      {
        "astId": 31,
        "contract": "contracts/basicNft.sol:BasicNft",
        "label": "_owners",
        "offset": 0,
        "slot": "2",
        "type": "t_mapping(t_uint256,t_address)"
      },
      {
        "astId": 35,
        "contract": "contracts/basicNft.sol:BasicNft",
        "label": "_balances",
        "offset": 0,
        "slot": "3",
        "type": "t_mapping(t_address,t_uint256)"
      },
      {
        "astId": 39,
        "contract": "contracts/basicNft.sol:BasicNft",
        "label": "_tokenApprovals",
        "offset": 0,
        "slot": "4",
        "type": "t_mapping(t_uint256,t_address)"
      },
      {
        "astId": 45,
        "contract": "contracts/basicNft.sol:BasicNft",
        "label": "_operatorApprovals",
        "offset": 0,
        "slot": "5",
        "type": "t_mapping(t_address,t_mapping(t_address,t_bool))"
      },
      {
        "astId": 2540,
        "contract": "contracts/basicNft.sol:BasicNft",
        "label": "s_tokenId",
        "offset": 0,
        "slot": "6",
        "type": "t_uint256"
      }
    ],
    "types": {
      "t_address": {
        "encoding": "inplace",
        "label": "address",
        "numberOfBytes": "20"
      },
      "t_bool": {
        "encoding": "inplace",
        "label": "bool",
        "numberOfBytes": "1"
      },
      "t_mapping(t_address,t_bool)": {
        "encoding": "mapping",
        "key": "t_address",
        "label": "mapping(address => bool)",
        "numberOfBytes": "32",
        "value": "t_bool"
      },
      "t_mapping(t_address,t_mapping(t_address,t_bool))": {
        "encoding": "mapping",
        "key": "t_address",
        "label": "mapping(address => mapping(address => bool))",
        "numberOfBytes": "32",
        "value": "t_mapping(t_address,t_bool)"
      },
      "t_mapping(t_address,t_uint256)": {
        "encoding": "mapping",
        "key": "t_address",
        "label": "mapping(address => uint256)",
        "numberOfBytes": "32",
        "value": "t_uint256"
      },
      "t_mapping(t_uint256,t_address)": {
        "encoding": "mapping",
        "key": "t_uint256",
        "label": "mapping(uint256 => address)",
        "numberOfBytes": "32",
        "value": "t_address"
      },
      "t_string_storage": {
        "encoding": "bytes",
        "label": "string",
        "numberOfBytes": "32"
      },
      "t_uint256": {
        "encoding": "inplace",
        "label": "uint256",
        "numberOfBytes": "32"
      }
    }
  }
}