{
  "address": "0x251A0128A9cb2dD827BE892965f50c9C01f75868",
  "abi": [
    {
      "inputs": [
        {
          "internalType": "address",
          "name": "AggregatorInterfaceAddress",
          "type": "address"
        },
        {
          "internalType": "string",
          "name": "lowSvg",
          "type": "string"
        },
        {
          "internalType": "string",
          "name": "Highsvg",
          "type": "string"
        }
      ],
      "stateMutability": "nonpayable",
      "type": "constructor"
    },
    {
      "inputs": [],
      "name": "DNFT_invalidTokenid",
      "type": "error"
    },
    {
      "anonymous": false,
      "inputs": [
        {
          "indexed": true,
          "internalType": "address",
          "name": "owner",
          "type": "address"
        },
        {
          "indexed": true,
          "internalType": "address",
          "name": "approved",
          "type": "address"
        },
        {
          "indexed": true,
          "internalType": "uint256",
          "name": "tokenId",
          "type": "uint256"
        }
      ],
      "name": "Approval",
      "type": "event"
    },
    {
      "anonymous": false,
      "inputs": [
        {
          "indexed": true,
          "internalType": "address",
          "name": "owner",
          "type": "address"
        },
        {
          "indexed": true,
          "internalType": "address",
          "name": "operator",
          "type": "address"
        },
        {
          "indexed": false,
          "internalType": "bool",
          "name": "approved",
          "type": "bool"
        }
      ],
      "name": "ApprovalForAll",
      "type": "event"
    },
    {
      "anonymous": false,
      "inputs": [
        {
          "indexed": true,
          "internalType": "address",
          "name": "from",
          "type": "address"
        },
        {
          "indexed": true,
          "internalType": "address",
          "name": "to",
          "type": "address"
        },
        {
          "indexed": true,
          "internalType": "uint256",
          "name": "tokenId",
          "type": "uint256"
        }
      ],
      "name": "Transfer",
      "type": "event"
    },
    {
      "anonymous": false,
      "inputs": [
        {
          "indexed": true,
          "internalType": "uint256",
          "name": "tokenId",
          "type": "uint256"
        },
        {
          "indexed": true,
          "internalType": "int256",
          "name": "tokenValue",
          "type": "int256"
        }
      ],
      "name": "createdNFT",
      "type": "event"
    },
    {
      "inputs": [],
      "name": "SVGBASE64PREFIX",
      "outputs": [
        {
          "internalType": "string",
          "name": "",
          "type": "string"
        }
      ],
      "stateMutability": "view",
      "type": "function"
    },
    {
      "inputs": [],
      "name": "__highSvg",
      "outputs": [
        {
          "internalType": "string",
          "name": "",
          "type": "string"
        }
      ],
      "stateMutability": "view",
      "type": "function"
    },
    {
      "inputs": [],
      "name": "__lowSvg",
      "outputs": [
        {
          "internalType": "string",
          "name": "",
          "type": "string"
        }
      ],
      "stateMutability": "view",
      "type": "function"
    },
    {
      "inputs": [],
      "name": "__tokenId",
      "outputs": [
        {
          "internalType": "uint256",
          "name": "",
          "type": "uint256"
        }
      ],
      "stateMutability": "view",
      "type": "function"
    },
    {
      "inputs": [
        {
          "internalType": "address",
          "name": "to",
          "type": "address"
        },
        {
          "internalType": "uint256",
          "name": "tokenId",
          "type": "uint256"
        }
      ],
      "name": "approve",
      "outputs": [],
      "stateMutability": "nonpayable",
      "type": "function"
    },
    {
      "inputs": [
        {
          "internalType": "address",
          "name": "owner",
          "type": "address"
        }
      ],
      "name": "balanceOf",
      "outputs": [
        {
          "internalType": "uint256",
          "name": "",
          "type": "uint256"
        }
      ],
      "stateMutability": "view",
      "type": "function"
    },
    {
      "inputs": [
        {
          "internalType": "uint256",
          "name": "tokenId",
          "type": "uint256"
        }
      ],
      "name": "getApproved",
      "outputs": [
        {
          "internalType": "address",
          "name": "",
          "type": "address"
        }
      ],
      "stateMutability": "view",
      "type": "function"
    },
    {
      "inputs": [],
      "name": "i_priceFeeds",
      "outputs": [
        {
          "internalType": "contract AggregatorV3Interface",
          "name": "",
          "type": "address"
        }
      ],
      "stateMutability": "view",
      "type": "function"
    },
    {
      "inputs": [
        {
          "internalType": "address",
          "name": "owner",
          "type": "address"
        },
        {
          "internalType": "address",
          "name": "operator",
          "type": "address"
        }
      ],
      "name": "isApprovedForAll",
      "outputs": [
        {
          "internalType": "bool",
          "name": "",
          "type": "bool"
        }
      ],
      "stateMutability": "view",
      "type": "function"
    },
    {
      "inputs": [
        {
          "internalType": "int256",
          "name": "tokenValue",
          "type": "int256"
        }
      ],
      "name": "mintNFT",
      "outputs": [],
      "stateMutability": "nonpayable",
      "type": "function"
    },
    {
      "inputs": [],
      "name": "name",
      "outputs": [
        {
          "internalType": "string",
          "name": "",
          "type": "string"
        }
      ],
      "stateMutability": "view",
      "type": "function"
    },
    {
      "inputs": [
        {
          "internalType": "uint256",
          "name": "tokenId",
          "type": "uint256"
        }
      ],
      "name": "ownerOf",
      "outputs": [
        {
          "internalType": "address",
          "name": "",
          "type": "address"
        }
      ],
      "stateMutability": "view",
      "type": "function"
    },
    {
      "inputs": [
        {
          "internalType": "uint256",
          "name": "",
          "type": "uint256"
        }
      ],
      "name": "s_tokenIdToValue",
      "outputs": [
        {
          "internalType": "int256",
          "name": "",
          "type": "int256"
        }
      ],
      "stateMutability": "view",
      "type": "function"
    },
    {
      "inputs": [
        {
          "internalType": "address",
          "name": "from",
          "type": "address"
        },
        {
          "internalType": "address",
          "name": "to",
          "type": "address"
        },
        {
          "internalType": "uint256",
          "name": "tokenId",
          "type": "uint256"
        }
      ],
      "name": "safeTransferFrom",
      "outputs": [],
      "stateMutability": "nonpayable",
      "type": "function"
    },
    {
      "inputs": [
        {
          "internalType": "address",
          "name": "from",
          "type": "address"
        },
        {
          "internalType": "address",
          "name": "to",
          "type": "address"
        },
        {
          "internalType": "uint256",
          "name": "tokenId",
          "type": "uint256"
        },
        {
          "internalType": "bytes",
          "name": "data",
          "type": "bytes"
        }
      ],
      "name": "safeTransferFrom",
      "outputs": [],
      "stateMutability": "nonpayable",
      "type": "function"
    },
    {
      "inputs": [
        {
          "internalType": "address",
          "name": "operator",
          "type": "address"
        },
        {
          "internalType": "bool",
          "name": "approved",
          "type": "bool"
        }
      ],
      "name": "setApprovalForAll",
      "outputs": [],
      "stateMutability": "nonpayable",
      "type": "function"
    },
    {
      "inputs": [
        {
          "internalType": "bytes4",
          "name": "interfaceId",
          "type": "bytes4"
        }
      ],
      "name": "supportsInterface",
      "outputs": [
        {
          "internalType": "bool",
          "name": "",
          "type": "bool"
        }
      ],
      "stateMutability": "view",
      "type": "function"
    },
    {
      "inputs": [
        {
          "internalType": "string",
          "name": "svg",
          "type": "string"
        }
      ],
      "name": "svgToImageURI",
      "outputs": [
        {
          "internalType": "string",
          "name": "",
          "type": "string"
        }
      ],
      "stateMutability": "pure",
      "type": "function"
    },
    {
      "inputs": [],
      "name": "symbol",
      "outputs": [
        {
          "internalType": "string",
          "name": "",
          "type": "string"
        }
      ],
      "stateMutability": "view",
      "type": "function"
    },
    {
      "inputs": [],
      "name": "tokenId",
      "outputs": [
        {
          "internalType": "uint256",
          "name": "",
          "type": "uint256"
        }
      ],
      "stateMutability": "view",
      "type": "function"
    },
    {
      "inputs": [
        {
          "internalType": "uint256",
          "name": "_tokenId",
          "type": "uint256"
        }
      ],
      "name": "tokenURI",
      "outputs": [
        {
          "internalType": "string",
          "name": "",
          "type": "string"
        }
      ],
      "stateMutability": "view",
      "type": "function"
    },
    {
      "inputs": [
        {
          "internalType": "address",
          "name": "from",
          "type": "address"
        },
        {
          "internalType": "address",
          "name": "to",
          "type": "address"
        },
        {
          "internalType": "uint256",
          "name": "tokenId",
          "type": "uint256"
        }
      ],
      "name": "transferFrom",
      "outputs": [],
      "stateMutability": "nonpayable",
      "type": "function"
    }
  ],
  "transactionHash": "0x1ff9c493c834f7f3b8af21ccc8e9c14991e0b5f2193113dfba91539114e53cb0",
  "args": [
    "0xD4a33860578De61DBAbDc8BFdb98FD742fA7028e",
    "<?xml version=\"1.0\" standalone=\"no\"?>\n<svg width=\"1024px\" height=\"1024px\" viewBox=\"0 0 1024 1024\" xmlns=\"http://www.w3.org/2000/svg\">\n  <path fill=\"#333\" d=\"M512 64C264.6 64 64 264.6 64 512s200.6 448 448 448 448-200.6 448-448S759.4 64 512 64zm0 820c-205.4 0-372-166.6-372-372s166.6-372 372-372 372 166.6 372 372-166.6 372-372 372z\"/>\n  <path fill=\"#E6E6E6\" d=\"M512 140c-205.4 0-372 166.6-372 372s166.6 372 372 372 372-166.6 372-372-166.6-372-372-372zM288 421a48.01 48.01 0 0 1 96 0 48.01 48.01 0 0 1-96 0zm376 272h-48.1c-4.2 0-7.8-3.2-8.1-7.4C604 636.1 562.5 597 512 597s-92.1 39.1-95.8 88.6c-.3 4.2-3.9 7.4-8.1 7.4H360a8 8 0 0 1-8-8.4c4.4-84.3 74.5-151.6 160-151.6s155.6 67.3 160 151.6a8 8 0 0 1-8 8.4zm24-224a48.01 48.01 0 0 1 0-96 48.01 48.01 0 0 1 0 96z\"/>\n  <path fill=\"#333\" d=\"M288 421a48 48 0 1 0 96 0 48 48 0 1 0-96 0zm224 112c-85.5 0-155.6 67.3-160 151.6a8 8 0 0 0 8 8.4h48.1c4.2 0 7.8-3.2 8.1-7.4 3.7-49.5 45.3-88.6 95.8-88.6s92 39.1 95.8 88.6c.3 4.2 3.9 7.4 8.1 7.4H664a8 8 0 0 0 8-8.4C667.6 600.3 597.5 533 512 533zm128-112a48 48 0 1 0 96 0 48 48 0 1 0-96 0z\"/>\n</svg>\n",
    "<svg viewBox=\"0 0 200 200\" width=\"400\"  height=\"400\" xmlns=\"http://www.w3.org/2000/svg\">\n  <circle cx=\"100\" cy=\"100\" fill=\"yellow\" r=\"78\" stroke=\"black\" stroke-width=\"3\"/>\n  <g class=\"eyes\">\n    <circle cx=\"61\" cy=\"82\" r=\"12\"/>\n    <circle cx=\"127\" cy=\"82\" r=\"12\"/>\n  </g>\n  <path d=\"m136.81 116.53c.69 26.17-64.11 42-81.52-.73\" style=\"fill:none; stroke: black; stroke-width: 3;\"/>\n</svg>"
  ],
  "numDeployments": 1,
  "solcInputHash": "08d071cde1e27983ccbcac57853157de",
  "bytecode": "0x60a06040523480156200001157600080fd5b5060405162003b1f38038062003b1f8339818101604052810190620000379190620004e2565b6040518060400160405280600a81526020017f44796e616d69634e4654000000000000000000000000000000000000000000008152506040518060400160405280600481526020017f444e4654000000000000000000000000000000000000000000000000000000008152508160009080519060200190620000bb9291906200039d565b508060019080519060200190620000d49291906200039d565b5050508273ffffffffffffffffffffffffffffffffffffffff1660808173ffffffffffffffffffffffffffffffffffffffff1660601b815250506200011f826200017160201b60201c565b60079080519060200190620001369291906200039d565b5062000148816200017160201b60201c565b600890805190602001906200015f9291906200039d565b5060006006819055505050506200093a565b60606000620001ac836040516020016200018c9190620005b3565b6040516020818303038152906040526200020f60201b62000fb81760201c565b90506040518060400160405280601a81526020017f646174613a696d6167652f7376672b786d6c3b6261736536342c00000000000081525081604051602001620001f8929190620005cc565b604051602081830303815290604052915050919050565b6060600082511415620002345760405180602001604052806000815250905062000398565b600060405180606001604052806040815260200162003adf604091399050600060036002855162000266919062000669565b620002729190620006c6565b6004620002809190620006fe565b9050600060208262000293919062000669565b67ffffffffffffffff811115620002af57620002ae620008cc565b5b6040519080825280601f01601f191660200182016040528015620002e25781602001600182028036833780820191505090505b509050818152600183018586518101602084015b8183101562000353576003830192508251603f8160121c168501518253600182019150603f81600c1c168501518253600182019150603f8160061c168501518253600182019150603f8116850151825360018201915050620002f6565b60038951066001811462000370576002811462000381576200038c565b613d3d60f01b60028303526200038c565b603d60f81b60018303525b50505050508093505050505b919050565b828054620003ab90620007d3565b90600052602060002090601f016020900481019282620003cf57600085556200041b565b82601f10620003ea57805160ff19168380011785556200041b565b828001600101855582156200041b579182015b828111156200041a578251825591602001919060010190620003fd565b5b5090506200042a91906200042e565b5090565b5b80821115620004495760008160009055506001016200042f565b5090565b6000620004646200045e846200061d565b620005f4565b90508281526020810184848401111562000483576200048262000900565b5b620004908482856200079d565b509392505050565b600081519050620004a98162000920565b92915050565b600082601f830112620004c757620004c6620008fb565b5b8151620004d98482602086016200044d565b91505092915050565b600080600060608486031215620004fe57620004fd6200090a565b5b60006200050e8682870162000498565b935050602084015167ffffffffffffffff81111562000532576200053162000905565b5b6200054086828701620004af565b925050604084015167ffffffffffffffff81111562000564576200056362000905565b5b6200057286828701620004af565b9150509250925092565b6000620005898262000653565b6200059581856200065e565b9350620005a78185602086016200079d565b80840191505092915050565b6000620005c182846200057c565b915081905092915050565b6000620005da82856200057c565b9150620005e882846200057c565b91508190509392505050565b60006200060062000613565b90506200060e828262000809565b919050565b6000604051905090565b600067ffffffffffffffff8211156200063b576200063a620008cc565b5b62000646826200090f565b9050602081019050919050565b600081519050919050565b600081905092915050565b6000620006768262000793565b9150620006838362000793565b9250827fffffffffffffffffffffffffffffffffffffffffffffffffffffffffffffffff03821115620006bb57620006ba6200083f565b5b828201905092915050565b6000620006d38262000793565b9150620006e08362000793565b925082620006f357620006f26200086e565b5b828204905092915050565b60006200070b8262000793565b9150620007188362000793565b9250817fffffffffffffffffffffffffffffffffffffffffffffffffffffffffffffffff04831182151516156200075457620007536200083f565b5b828202905092915050565b60006200076c8262000773565b9050919050565b600073ffffffffffffffffffffffffffffffffffffffff82169050919050565b6000819050919050565b60005b83811015620007bd578082015181840152602081019050620007a0565b83811115620007cd576000848401525b50505050565b60006002820490506001821680620007ec57607f821691505b602082108114156200080357620008026200089d565b5b50919050565b62000814826200090f565b810181811067ffffffffffffffff82111715620008365762000835620008cc565b5b80604052505050565b7f4e487b7100000000000000000000000000000000000000000000000000000000600052601160045260246000fd5b7f4e487b7100000000000000000000000000000000000000000000000000000000600052601260045260246000fd5b7f4e487b7100000000000000000000000000000000000000000000000000000000600052602260045260246000fd5b7f4e487b7100000000000000000000000000000000000000000000000000000000600052604160045260246000fd5b600080fd5b600080fd5b600080fd5b600080fd5b6000601f19601f8301169050919050565b6200092b816200075f565b81146200093757600080fd5b50565b60805160601c61317f620009606000396000818161060e0152610ced015261317f6000f3fe608060405234801561001057600080fd5b50600436106101425760003560e01c80636352211e116100b8578063a22cb4651161007c578063a22cb4651461037b578063b88d4fde14610397578063c87b56dd146103b3578063e2ed50cb146103e3578063e4c15a81146103ff578063e985e9c51461042f57610142565b80636352211e146102c1578063667b6c99146102f157806370a082311461030f5780637ca7157f1461033f57806395d89b411461035d57610142565b8063095ea7b31161010a578063095ea7b31461020157806317d70f7c1461021d57806323b872dd1461023b57806330d871c61461025757806336a00dd51461028757806342842e0e146102a557610142565b806301ffc9a71461014757806305f294b11461017757806306fdde031461019557806308133f24146101b3578063081812fc146101d1575b600080fd5b610161600480360381019061015c9190612197565b61045f565b60405161016e91906126ce565b60405180910390f35b61017f610541565b60405161018c919061271f565b60405180910390f35b61019d61057a565b6040516101aa919061271f565b60405180910390f35b6101bb61060c565b6040516101c891906126e9565b60405180910390f35b6101eb60048036038101906101e69190612267565b610630565b6040516101f89190612667565b60405180910390f35b61021b60048036038101906102169190612157565b610676565b005b61022561078e565b60405161023291906128a1565b60405180910390f35b61025560048036038101906102509190612041565b610794565b005b610271600480360381019061026c919061221e565b6107f4565b60405161027e919061271f565b60405180910390f35b61028f610881565b60405161029c91906128a1565b60405180910390f35b6102bf60048036038101906102ba9190612041565b61088b565b005b6102db60048036038101906102d69190612267565b6108ab565b6040516102e89190612667565b60405180910390f35b6102f9610932565b604051610306919061271f565b60405180910390f35b61032960048036038101906103249190611fd4565b6109c4565b60405161033691906128a1565b60405180910390f35b610347610a7c565b604051610354919061271f565b60405180910390f35b610365610b0e565b604051610372919061271f565b60405180910390f35b61039560048036038101906103909190612117565b610ba0565b005b6103b160048036038101906103ac9190612094565b610bb6565b005b6103cd60048036038101906103c89190612267565b610c18565b6040516103da919061271f565b60405180910390f35b6103fd60048036038101906103f891906121f1565b610e99565b005b61041960048036038101906104149190612267565b610f0c565b6040516104269190612704565b60405180910390f35b61044960048036038101906104449190612001565b610f24565b60405161045691906126ce565b60405180910390f35b60007f80ac58cd000000000000000000000000000000000000000000000000000000007bffffffffffffffffffffffffffffffffffffffffffffffffffffffff1916827bffffffffffffffffffffffffffffffffffffffffffffffffffffffff1916148061052a57507f5b5e139f000000000000000000000000000000000000000000000000000000007bffffffffffffffffffffffffffffffffffffffffffffffffffffffff1916827bffffffffffffffffffffffffffffffffffffffffffffffffffffffff1916145b8061053a575061053982611131565b5b9050919050565b6040518060400160405280601a81526020017f646174613a696d6167652f7376672b786d6c3b6261736536342c00000000000081525081565b60606000805461058990612ba7565b80601f01602080910402602001604051908101604052809291908181526020018280546105b590612ba7565b80156106025780601f106105d757610100808354040283529160200191610602565b820191906000526020600020905b8154815290600101906020018083116105e557829003601f168201915b5050505050905090565b7f000000000000000000000000000000000000000000000000000000000000000081565b600061063b8261119b565b6004600083815260200190815260200160002060009054906101000a900473ffffffffffffffffffffffffffffffffffffffff169050919050565b6000610681826108ab565b90508073ffffffffffffffffffffffffffffffffffffffff168373ffffffffffffffffffffffffffffffffffffffff1614156106f2576040517f08c379a00000000000000000000000000000000000000000000000000000000081526004016106e990612861565b60405180910390fd5b8073ffffffffffffffffffffffffffffffffffffffff166107116111e6565b73ffffffffffffffffffffffffffffffffffffffff161480610740575061073f8161073a6111e6565b610f24565b5b61077f576040517f08c379a000000000000000000000000000000000000000000000000000000000815260040161077690612881565b60405180910390fd5b61078983836111ee565b505050565b60065481565b6107a561079f6111e6565b826112a7565b6107e4576040517f08c379a00000000000000000000000000000000000000000000000000000000081526004016107db90612741565b60405180910390fd5b6107ef83838361133c565b505050565b606060006108208360405160200161080c91906125e7565b604051602081830303815290604052610fb8565b90506040518060400160405280601a81526020017f646174613a696d6167652f7376672b786d6c3b6261736536342c0000000000008152508160405160200161086a9291906125fe565b604051602081830303815290604052915050919050565b6000600654905090565b6108a683838360405180602001604052806000815250610bb6565b505050565b6000806108b783611636565b9050600073ffffffffffffffffffffffffffffffffffffffff168173ffffffffffffffffffffffffffffffffffffffff161415610929576040517f08c379a000000000000000000000000000000000000000000000000000000000815260040161092090612841565b60405180910390fd5b80915050919050565b60606007805461094190612ba7565b80601f016020809104026020016040519081016040528092919081815260200182805461096d90612ba7565b80156109ba5780601f1061098f576101008083540402835291602001916109ba565b820191906000526020600020905b81548152906001019060200180831161099d57829003601f168201915b5050505050905090565b60008073ffffffffffffffffffffffffffffffffffffffff168273ffffffffffffffffffffffffffffffffffffffff161415610a35576040517f08c379a0000000000000000000000000000000000000000000000000000000008152600401610a2c90612801565b60405180910390fd5b600360008373ffffffffffffffffffffffffffffffffffffffff1673ffffffffffffffffffffffffffffffffffffffff168152602001908152602001600020549050919050565b606060088054610a8b90612ba7565b80601f0160208091040260200160405190810160405280929190818152602001828054610ab790612ba7565b8015610b045780601f10610ad957610100808354040283529160200191610b04565b820191906000526020600020905b815481529060010190602001808311610ae757829003601f168201915b5050505050905090565b606060018054610b1d90612ba7565b80601f0160208091040260200160405190810160405280929190818152602001828054610b4990612ba7565b8015610b965780601f10610b6b57610100808354040283529160200191610b96565b820191906000526020600020905b815481529060010190602001808311610b7957829003601f168201915b5050505050905090565b610bb2610bab6111e6565b8383611673565b5050565b610bc7610bc16111e6565b836112a7565b610c06576040517f08c379a0000000000000000000000000000000000000000000000000000000008152600401610bfd90612741565b60405180910390fd5b610c12848484846117e0565b50505050565b6060610c238261183c565b15610c5a576040517fd09a5fdf00000000000000000000000000000000000000000000000000000000815260040160405180910390fd5b600060078054610c6990612ba7565b80601f0160208091040260200160405190810160405280929190818152602001828054610c9590612ba7565b8015610ce25780601f10610cb757610100808354040283529160200191610ce2565b820191906000526020600020905b815481529060010190602001808311610cc557829003601f168201915b5050505050905060007f000000000000000000000000000000000000000000000000000000000000000073ffffffffffffffffffffffffffffffffffffffff1663feaf968c6040518163ffffffff1660e01b815260040160a06040518083038186803b158015610d5157600080fd5b505afa158015610d65573d6000803e3d6000fd5b505050506040513d601f19601f82011682018060405250810190610d899190612294565b50505091505060096000858152602001908152602001600020548112610e375760088054610db690612ba7565b80601f0160208091040260200160405190810160405280929190818152602001828054610de290612ba7565b8015610e2f5780601f10610e0457610100808354040283529160200191610e2f565b820191906000526020600020905b815481529060010190602001808311610e1257829003601f168201915b505050505091505b610e3f61187d565b610e70610e4a61057a565b84604051602001610e5c929190612622565b604051602081830303815290604052610fb8565b604051602001610e819291906125fe565b60405160208183030381529060405292505050919050565b8060096000600654815260200190815260200160002081905550600160066000828254610ec69190612986565b92505081905550610ed9336006546118ba565b806006547f367a4d2a4f8da64e64b836938bbed94f781b7a21e1bea1d09d50d01d187dffd360405160405180910390a350565b60096020528060005260406000206000915090505481565b6000600560008473ffffffffffffffffffffffffffffffffffffffff1673ffffffffffffffffffffffffffffffffffffffff16815260200190815260200160002060008373ffffffffffffffffffffffffffffffffffffffff1673ffffffffffffffffffffffffffffffffffffffff16815260200190815260200160002060009054906101000a900460ff16905092915050565b6060600082511415610fdb5760405180602001604052806000815250905061112c565b600060405180606001604052806040815260200161310a604091399050600060036002855161100a9190612986565b61101491906129dc565b60046110209190612a0d565b905060006020826110319190612986565b67ffffffffffffffff81111561104a57611049612c97565b5b6040519080825280601f01601f19166020018201604052801561107c5781602001600182028036833780820191505090505b509050818152600183018586518101602084015b818310156110eb576003830192508251603f8160121c168501518253600182019150603f81600c1c168501518253600182019150603f8160061c168501518253600182019150603f8116850151825360018201915050611090565b600389510660018114611105576002811461111557611120565b613d3d60f01b6002830352611120565b603d60f81b60018303525b50505050508093505050505b919050565b60007f01ffc9a7000000000000000000000000000000000000000000000000000000007bffffffffffffffffffffffffffffffffffffffffffffffffffffffff1916827bffffffffffffffffffffffffffffffffffffffffffffffffffffffff1916149050919050565b6111a48161183c565b6111e3576040517f08c379a00000000000000000000000000000000000000000000000000000000081526004016111da90612841565b60405180910390fd5b50565b600033905090565b816004600083815260200190815260200160002060006101000a81548173ffffffffffffffffffffffffffffffffffffffff021916908373ffffffffffffffffffffffffffffffffffffffff160217905550808273ffffffffffffffffffffffffffffffffffffffff16611261836108ab565b73ffffffffffffffffffffffffffffffffffffffff167f8c5be1e5ebec7d5bd14f71427d1e84f3dd0314c0f7b2291e5b200ac8c7c3b92560405160405180910390a45050565b6000806112b3836108ab565b90508073ffffffffffffffffffffffffffffffffffffffff168473ffffffffffffffffffffffffffffffffffffffff1614806112f557506112f48185610f24565b5b8061133357508373ffffffffffffffffffffffffffffffffffffffff1661131b84610630565b73ffffffffffffffffffffffffffffffffffffffff16145b91505092915050565b8273ffffffffffffffffffffffffffffffffffffffff1661135c826108ab565b73ffffffffffffffffffffffffffffffffffffffff16146113b2576040517f08c379a00000000000000000000000000000000000000000000000000000000081526004016113a990612781565b60405180910390fd5b600073ffffffffffffffffffffffffffffffffffffffff168273ffffffffffffffffffffffffffffffffffffffff161415611422576040517f08c379a0000000000000000000000000000000000000000000000000000000008152600401611419906127c1565b60405180910390fd5b61142f83838360016118d8565b8273ffffffffffffffffffffffffffffffffffffffff1661144f826108ab565b73ffffffffffffffffffffffffffffffffffffffff16146114a5576040517f08c379a000000000000000000000000000000000000000000000000000000000815260040161149c90612781565b60405180910390fd5b6004600082815260200190815260200160002060006101000a81549073ffffffffffffffffffffffffffffffffffffffff02191690556001600360008573ffffffffffffffffffffffffffffffffffffffff1673ffffffffffffffffffffffffffffffffffffffff168152602001908152602001600020600082825403925050819055506001600360008473ffffffffffffffffffffffffffffffffffffffff1673ffffffffffffffffffffffffffffffffffffffff16815260200190815260200160002060008282540192505081905550816002600083815260200190815260200160002060006101000a81548173ffffffffffffffffffffffffffffffffffffffff021916908373ffffffffffffffffffffffffffffffffffffffff160217905550808273ffffffffffffffffffffffffffffffffffffffff168473ffffffffffffffffffffffffffffffffffffffff167fddf252ad1be2c89b69c2b068fc378daa952ba7f163c4a11628f55a4df523b3ef60405160405180910390a461163183838360016119fe565b505050565b60006002600083815260200190815260200160002060009054906101000a900473ffffffffffffffffffffffffffffffffffffffff169050919050565b8173ffffffffffffffffffffffffffffffffffffffff168373ffffffffffffffffffffffffffffffffffffffff1614156116e2576040517f08c379a00000000000000000000000000000000000000000000000000000000081526004016116d9906127e1565b60405180910390fd5b80600560008573ffffffffffffffffffffffffffffffffffffffff1673ffffffffffffffffffffffffffffffffffffffff16815260200190815260200160002060008473ffffffffffffffffffffffffffffffffffffffff1673ffffffffffffffffffffffffffffffffffffffff16815260200190815260200160002060006101000a81548160ff0219169083151502179055508173ffffffffffffffffffffffffffffffffffffffff168373ffffffffffffffffffffffffffffffffffffffff167f17307eab39ab6107e8899845ad3d59bd9653f200f220920489ca2b5937696c31836040516117d391906126ce565b60405180910390a3505050565b6117eb84848461133c565b6117f784848484611a04565b611836576040517f08c379a000000000000000000000000000000000000000000000000000000000815260040161182d90612761565b60405180910390fd5b50505050565b60008073ffffffffffffffffffffffffffffffffffffffff1661185e83611636565b73ffffffffffffffffffffffffffffffffffffffff1614159050919050565b60606040518060400160405280601d81526020017f646174613a6170706c69636174696f6e2f6a736f6e3b6261736536342c000000815250905090565b6118d4828260405180602001604052806000815250611b9b565b5050565b60018111156119f857600073ffffffffffffffffffffffffffffffffffffffff168473ffffffffffffffffffffffffffffffffffffffff161461196c5780600360008673ffffffffffffffffffffffffffffffffffffffff1673ffffffffffffffffffffffffffffffffffffffff16815260200190815260200160002060008282546119649190612a67565b925050819055505b600073ffffffffffffffffffffffffffffffffffffffff168373ffffffffffffffffffffffffffffffffffffffff16146119f75780600360008573ffffffffffffffffffffffffffffffffffffffff1673ffffffffffffffffffffffffffffffffffffffff16815260200190815260200160002060008282546119ef9190612986565b925050819055505b5b50505050565b50505050565b6000611a258473ffffffffffffffffffffffffffffffffffffffff16611bf6565b15611b8e578373ffffffffffffffffffffffffffffffffffffffff1663150b7a02611a4e6111e6565b8786866040518563ffffffff1660e01b8152600401611a709493929190612682565b602060405180830381600087803b158015611a8a57600080fd5b505af1925050508015611abb57506040513d601f19601f82011682018060405250810190611ab891906121c4565b60015b611b3e573d8060008114611aeb576040519150601f19603f3d011682016040523d82523d6000602084013e611af0565b606091505b50600081511415611b36576040517f08c379a0000000000000000000000000000000000000000000000000000000008152600401611b2d90612761565b60405180910390fd5b805181602001fd5b63150b7a0260e01b7bffffffffffffffffffffffffffffffffffffffffffffffffffffffff1916817bffffffffffffffffffffffffffffffffffffffffffffffffffffffff191614915050611b93565b600190505b949350505050565b611ba58383611c19565b611bb26000848484611a04565b611bf1576040517f08c379a0000000000000000000000000000000000000000000000000000000008152600401611be890612761565b60405180910390fd5b505050565b6000808273ffffffffffffffffffffffffffffffffffffffff163b119050919050565b600073ffffffffffffffffffffffffffffffffffffffff168273ffffffffffffffffffffffffffffffffffffffff161415611c89576040517f08c379a0000000000000000000000000000000000000000000000000000000008152600401611c8090612821565b60405180910390fd5b611c928161183c565b15611cd2576040517f08c379a0000000000000000000000000000000000000000000000000000000008152600401611cc9906127a1565b60405180910390fd5b611ce06000838360016118d8565b611ce98161183c565b15611d29576040517f08c379a0000000000000000000000000000000000000000000000000000000008152600401611d20906127a1565b60405180910390fd5b6001600360008473ffffffffffffffffffffffffffffffffffffffff1673ffffffffffffffffffffffffffffffffffffffff16815260200190815260200160002060008282540192505081905550816002600083815260200190815260200160002060006101000a81548173ffffffffffffffffffffffffffffffffffffffff021916908373ffffffffffffffffffffffffffffffffffffffff160217905550808273ffffffffffffffffffffffffffffffffffffffff16600073ffffffffffffffffffffffffffffffffffffffff167fddf252ad1be2c89b69c2b068fc378daa952ba7f163c4a11628f55a4df523b3ef60405160405180910390a4611e336000838360016119fe565b5050565b6000611e4a611e45846128e1565b6128bc565b905082815260208101848484011115611e6657611e65612ccb565b5b611e71848285612b65565b509392505050565b6000611e8c611e8784612912565b6128bc565b905082815260208101848484011115611ea857611ea7612ccb565b5b611eb3848285612b65565b509392505050565b600081359050611eca8161307f565b92915050565b600081359050611edf81613096565b92915050565b600081359050611ef4816130ad565b92915050565b600081519050611f09816130ad565b92915050565b600082601f830112611f2457611f23612cc6565b5b8135611f34848260208601611e37565b91505092915050565b600081359050611f4c816130c4565b92915050565b600081519050611f61816130c4565b92915050565b600082601f830112611f7c57611f7b612cc6565b5b8135611f8c848260208601611e79565b91505092915050565b600081359050611fa4816130db565b92915050565b600081519050611fb9816130db565b92915050565b600081519050611fce816130f2565b92915050565b600060208284031215611fea57611fe9612cd5565b5b6000611ff884828501611ebb565b91505092915050565b6000806040838503121561201857612017612cd5565b5b600061202685828601611ebb565b925050602061203785828601611ebb565b9150509250929050565b60008060006060848603121561205a57612059612cd5565b5b600061206886828701611ebb565b935050602061207986828701611ebb565b925050604061208a86828701611f95565b9150509250925092565b600080600080608085870312156120ae576120ad612cd5565b5b60006120bc87828801611ebb565b94505060206120cd87828801611ebb565b93505060406120de87828801611f95565b925050606085013567ffffffffffffffff8111156120ff576120fe612cd0565b5b61210b87828801611f0f565b91505092959194509250565b6000806040838503121561212e5761212d612cd5565b5b600061213c85828601611ebb565b925050602061214d85828601611ed0565b9150509250929050565b6000806040838503121561216e5761216d612cd5565b5b600061217c85828601611ebb565b925050602061218d85828601611f95565b9150509250929050565b6000602082840312156121ad576121ac612cd5565b5b60006121bb84828501611ee5565b91505092915050565b6000602082840312156121da576121d9612cd5565b5b60006121e884828501611efa565b91505092915050565b60006020828403121561220757612206612cd5565b5b600061221584828501611f3d565b91505092915050565b60006020828403121561223457612233612cd5565b5b600082013567ffffffffffffffff81111561225257612251612cd0565b5b61225e84828501611f67565b91505092915050565b60006020828403121561227d5761227c612cd5565b5b600061228b84828501611f95565b91505092915050565b600080600080600060a086880312156122b0576122af612cd5565b5b60006122be88828901611fbf565b95505060206122cf88828901611f52565b94505060406122e088828901611faa565b93505060606122f188828901611faa565b925050608061230288828901611fbf565b9150509295509295909350565b61231881612a9b565b82525050565b61232781612aad565b82525050565b600061233882612943565b6123428185612959565b9350612352818560208601612b74565b61235b81612cda565b840191505092915050565b61236f81612b2f565b82525050565b61237e81612ae5565b82525050565b600061238f8261294e565b612399818561296a565b93506123a9818560208601612b74565b6123b281612cda565b840191505092915050565b60006123c88261294e565b6123d2818561297b565b93506123e2818560208601612b74565b80840191505092915050565b60006123fb602d8361296a565b915061240682612ceb565b604082019050919050565b600061241e60098361297b565b915061242982612d3a565b600982019050919050565b600061244160328361296a565b915061244c82612d63565b604082019050919050565b600061246460258361296a565b915061246f82612db2565b604082019050919050565b6000612487601c8361296a565b915061249282612e01565b602082019050919050565b60006124aa60248361296a565b91506124b582612e2a565b604082019050919050565b60006124cd60198361296a565b91506124d882612e79565b602082019050919050565b60006124f060298361296a565b91506124fb82612ea2565b604082019050919050565b600061251360258361297b565b915061251e82612ef1565b602582019050919050565b600061253660378361297b565b915061254182612f40565b603782019050919050565b600061255960208361296a565b915061256482612f8f565b602082019050919050565b600061257c60188361296a565b915061258782612fb8565b602082019050919050565b600061259f60218361296a565b91506125aa82612fe1565b604082019050919050565b60006125c2603d8361296a565b91506125cd82613030565b604082019050919050565b6125e181612b0f565b82525050565b60006125f382846123bd565b915081905092915050565b600061260a82856123bd565b915061261682846123bd565b91508190509392505050565b600061262d82612411565b915061263982856123bd565b915061264482612506565b915061265082846123bd565b915061265b82612529565b91508190509392505050565b600060208201905061267c600083018461230f565b92915050565b6000608082019050612697600083018761230f565b6126a4602083018661230f565b6126b160408301856125d8565b81810360608301526126c3818461232d565b905095945050505050565b60006020820190506126e3600083018461231e565b92915050565b60006020820190506126fe6000830184612366565b92915050565b60006020820190506127196000830184612375565b92915050565b600060208201905081810360008301526127398184612384565b905092915050565b6000602082019050818103600083015261275a816123ee565b9050919050565b6000602082019050818103600083015261277a81612434565b9050919050565b6000602082019050818103600083015261279a81612457565b9050919050565b600060208201905081810360008301526127ba8161247a565b9050919050565b600060208201905081810360008301526127da8161249d565b9050919050565b600060208201905081810360008301526127fa816124c0565b9050919050565b6000602082019050818103600083015261281a816124e3565b9050919050565b6000602082019050818103600083015261283a8161254c565b9050919050565b6000602082019050818103600083015261285a8161256f565b9050919050565b6000602082019050818103600083015261287a81612592565b9050919050565b6000602082019050818103600083015261289a816125b5565b9050919050565b60006020820190506128b660008301846125d8565b92915050565b60006128c66128d7565b90506128d28282612bd9565b919050565b6000604051905090565b600067ffffffffffffffff8211156128fc576128fb612c97565b5b61290582612cda565b9050602081019050919050565b600067ffffffffffffffff82111561292d5761292c612c97565b5b61293682612cda565b9050602081019050919050565b600081519050919050565b600081519050919050565b600082825260208201905092915050565b600082825260208201905092915050565b600081905092915050565b600061299182612b0f565b915061299c83612b0f565b9250827fffffffffffffffffffffffffffffffffffffffffffffffffffffffffffffffff038211156129d1576129d0612c0a565b5b828201905092915050565b60006129e782612b0f565b91506129f283612b0f565b925082612a0257612a01612c39565b5b828204905092915050565b6000612a1882612b0f565b9150612a2383612b0f565b9250817fffffffffffffffffffffffffffffffffffffffffffffffffffffffffffffffff0483118215151615612a5c57612a5b612c0a565b5b828202905092915050565b6000612a7282612b0f565b9150612a7d83612b0f565b925082821015612a9057612a8f612c0a565b5b828203905092915050565b6000612aa682612aef565b9050919050565b60008115159050919050565b60007fffffffff0000000000000000000000000000000000000000000000000000000082169050919050565b6000819050919050565b600073ffffffffffffffffffffffffffffffffffffffff82169050919050565b6000819050919050565b600069ffffffffffffffffffff82169050919050565b6000612b3a82612b41565b9050919050565b6000612b4c82612b53565b9050919050565b6000612b5e82612aef565b9050919050565b82818337600083830152505050565b60005b83811015612b92578082015181840152602081019050612b77565b83811115612ba1576000848401525b50505050565b60006002820490506001821680612bbf57607f821691505b60208210811415612bd357612bd2612c68565b5b50919050565b612be282612cda565b810181811067ffffffffffffffff82111715612c0157612c00612c97565b5b80604052505050565b7f4e487b7100000000000000000000000000000000000000000000000000000000600052601160045260246000fd5b7f4e487b7100000000000000000000000000000000000000000000000000000000600052601260045260246000fd5b7f4e487b7100000000000000000000000000000000000000000000000000000000600052602260045260246000fd5b7f4e487b7100000000000000000000000000000000000000000000000000000000600052604160045260246000fd5b600080fd5b600080fd5b600080fd5b600080fd5b6000601f19601f8301169050919050565b7f4552433732313a2063616c6c6572206973206e6f7420746f6b656e206f776e6560008201527f72206f7220617070726f76656400000000000000000000000000000000000000602082015250565b7f7b226e616d65223a220000000000000000000000000000000000000000000000600082015250565b7f4552433732313a207472616e7366657220746f206e6f6e20455243373231526560008201527f63656976657220696d706c656d656e7465720000000000000000000000000000602082015250565b7f4552433732313a207472616e736665722066726f6d20696e636f72726563742060008201527f6f776e6572000000000000000000000000000000000000000000000000000000602082015250565b7f4552433732313a20746f6b656e20616c7265616479206d696e74656400000000600082015250565b7f4552433732313a207472616e7366657220746f20746865207a65726f2061646460008201527f7265737300000000000000000000000000000000000000000000000000000000602082015250565b7f4552433732313a20617070726f766520746f2063616c6c657200000000000000600082015250565b7f4552433732313a2061646472657373207a65726f206973206e6f74206120766160008201527f6c6964206f776e65720000000000000000000000000000000000000000000000602082015250565b7f222c226465736372697074696f6e223a22476f6f64204e465473222c22696d6160008201527f6765223a22000000000000000000000000000000000000000000000000000000602082015250565b7f222c2261747472696275746573223a5b7b2274726169745f74797065223a226360008201527f7574656e657373222c2276616c7565223a3130307d5d7d000000000000000000602082015250565b7f4552433732313a206d696e7420746f20746865207a65726f2061646472657373600082015250565b7f4552433732313a20696e76616c696420746f6b656e2049440000000000000000600082015250565b7f4552433732313a20617070726f76616c20746f2063757272656e74206f776e6560008201527f7200000000000000000000000000000000000000000000000000000000000000602082015250565b7f4552433732313a20617070726f76652063616c6c6572206973206e6f7420746f60008201527f6b656e206f776e6572206f7220617070726f76656420666f7220616c6c000000602082015250565b61308881612a9b565b811461309357600080fd5b50565b61309f81612aad565b81146130aa57600080fd5b50565b6130b681612ab9565b81146130c157600080fd5b50565b6130cd81612ae5565b81146130d857600080fd5b50565b6130e481612b0f565b81146130ef57600080fd5b50565b6130fb81612b19565b811461310657600080fd5b5056fe4142434445464748494a4b4c4d4e4f505152535455565758595a6162636465666768696a6b6c6d6e6f707172737475767778797a303132333435363738392b2fa264697066735822122054279089fcea550eaf4a064dc204045058ef4d5bbcf9efa338816740144f966364736f6c634300080700334142434445464748494a4b4c4d4e4f505152535455565758595a6162636465666768696a6b6c6d6e6f707172737475767778797a303132333435363738392b2f",
  "devdoc": {
    "kind": "dev",
    "methods": {
      "approve(address,uint256)": {
        "details": "See {IERC721-approve}."
      },
      "balanceOf(address)": {
        "details": "See {IERC721-balanceOf}."
      },
      "getApproved(uint256)": {
        "details": "See {IERC721-getApproved}."
      },
      "isApprovedForAll(address,address)": {
        "details": "See {IERC721-isApprovedForAll}."
      },
      "name()": {
        "details": "See {IERC721Metadata-name}."
      },
      "ownerOf(uint256)": {
        "details": "See {IERC721-ownerOf}."
      },
      "safeTransferFrom(address,address,uint256)": {
        "details": "See {IERC721-safeTransferFrom}."
      },
      "safeTransferFrom(address,address,uint256,bytes)": {
        "details": "See {IERC721-safeTransferFrom}."
      },
      "setApprovalForAll(address,bool)": {
        "details": "See {IERC721-setApprovalForAll}."
      },
      "supportsInterface(bytes4)": {
        "details": "See {IERC165-supportsInterface}."
      },
      "symbol()": {
        "details": "See {IERC721Metadata-symbol}."
      },
      "transferFrom(address,address,uint256)": {
        "details": "See {IERC721-transferFrom}."
      }
    },
    "version": 1
  },
  "userdoc": {
    "kind": "user",
    "methods": {},
    "version": 1
  },
  "storageLayout": {
    "storage": [
      {
        "astId": 71,
        "contract": "contracts/dynamicNFT.sol:DynamicNFT",
        "label": "_name",
        "offset": 0,
        "slot": "0",
        "type": "t_string_storage"
      },
      {
        "astId": 73,
        "contract": "contracts/dynamicNFT.sol:DynamicNFT",
        "label": "_symbol",
        "offset": 0,
        "slot": "1",
        "type": "t_string_storage"
      },
      {
        "astId": 77,
        "contract": "contracts/dynamicNFT.sol:DynamicNFT",
        "label": "_owners",
        "offset": 0,
        "slot": "2",
        "type": "t_mapping(t_uint256,t_address)"
      },
      {
        "astId": 81,
        "contract": "contracts/dynamicNFT.sol:DynamicNFT",
        "label": "_balances",
        "offset": 0,
        "slot": "3",
        "type": "t_mapping(t_address,t_uint256)"
      },
      {
        "astId": 85,
        "contract": "contracts/dynamicNFT.sol:DynamicNFT",
        "label": "_tokenApprovals",
        "offset": 0,
        "slot": "4",
        "type": "t_mapping(t_uint256,t_address)"
      },
      {
        "astId": 91,
        "contract": "contracts/dynamicNFT.sol:DynamicNFT",
        "label": "_operatorApprovals",
        "offset": 0,
        "slot": "5",
        "type": "t_mapping(t_address,t_mapping(t_address,t_bool))"
      },
      {
        "astId": 2705,
        "contract": "contracts/dynamicNFT.sol:DynamicNFT",
        "label": "tokenId",
        "offset": 0,
        "slot": "6",
        "type": "t_uint256"
      },
      {
        "astId": 2707,
        "contract": "contracts/dynamicNFT.sol:DynamicNFT",
        "label": "i_lowSvg",
        "offset": 0,
        "slot": "7",
        "type": "t_string_storage"
      },
      {
        "astId": 2709,
        "contract": "contracts/dynamicNFT.sol:DynamicNFT",
        "label": "i_highSvg",
        "offset": 0,
        "slot": "8",
        "type": "t_string_storage"
      },
      {
        "astId": 2716,
        "contract": "contracts/dynamicNFT.sol:DynamicNFT",
        "label": "s_tokenIdToValue",
        "offset": 0,
        "slot": "9",
        "type": "t_mapping(t_uint256,t_int256)"
      }
    ],
    "types": {
      "t_address": {
        "encoding": "inplace",
        "label": "address",
        "numberOfBytes": "20"
      },
      "t_bool": {
        "encoding": "inplace",
        "label": "bool",
        "numberOfBytes": "1"
      },
      "t_int256": {
        "encoding": "inplace",
        "label": "int256",
        "numberOfBytes": "32"
      },
      "t_mapping(t_address,t_bool)": {
        "encoding": "mapping",
        "key": "t_address",
        "label": "mapping(address => bool)",
        "numberOfBytes": "32",
        "value": "t_bool"
      },
      "t_mapping(t_address,t_mapping(t_address,t_bool))": {
        "encoding": "mapping",
        "key": "t_address",
        "label": "mapping(address => mapping(address => bool))",
        "numberOfBytes": "32",
        "value": "t_mapping(t_address,t_bool)"
      },
      "t_mapping(t_address,t_uint256)": {
        "encoding": "mapping",
        "key": "t_address",
        "label": "mapping(address => uint256)",
        "numberOfBytes": "32",
        "value": "t_uint256"
      },
      "t_mapping(t_uint256,t_address)": {
        "encoding": "mapping",
        "key": "t_uint256",
        "label": "mapping(uint256 => address)",
        "numberOfBytes": "32",
        "value": "t_address"
      },
      "t_mapping(t_uint256,t_int256)": {
        "encoding": "mapping",
        "key": "t_uint256",
        "label": "mapping(uint256 => int256)",
        "numberOfBytes": "32",
        "value": "t_int256"
      },
      "t_string_storage": {
        "encoding": "bytes",
        "label": "string",
        "numberOfBytes": "32"
      },
      "t_uint256": {
        "encoding": "inplace",
        "label": "uint256",
        "numberOfBytes": "32"
      }
    }
  }
}