{
  "address": "0x239c121bcB5CE3dF50A393544bb90dDF84934ef6",
  "abi": [
    {
      "inputs": [
        {
          "internalType": "address",
          "name": "vrfCoorAddress",
          "type": "address"
        },
        {
          "internalType": "bytes32",
          "name": "keyHash",
          "type": "bytes32"
        },
        {
          "internalType": "uint64",
          "name": "subId",
          "type": "uint64"
        },
        {
          "internalType": "uint32",
          "name": "callbackGasLimit",
          "type": "uint32"
        },
        {
          "internalType": "string[3]",
          "name": "NFT_URI",
          "type": "string[3]"
        },
        {
          "internalType": "uint256",
          "name": "NFT_MINT_FEE",
          "type": "uint256"
        }
      ],
      "stateMutability": "nonpayable",
      "type": "constructor"
    },
    {
      "inputs": [
        {
          "internalType": "address",
          "name": "have",
          "type": "address"
        },
        {
          "internalType": "address",
          "name": "want",
          "type": "address"
        }
      ],
      "name": "OnlyCoordinatorCanFulfill",
      "type": "error"
    },
    {
      "inputs": [],
      "name": "randomNFT_lowFund",
      "type": "error"
    },
    {
      "inputs": [],
      "name": "randomNFT_notSuccessful",
      "type": "error"
    },
    {
      "inputs": [],
      "name": "randomNFT_outOfBounds",
      "type": "error"
    },
    {
      "anonymous": false,
      "inputs": [
        {
          "indexed": true,
          "internalType": "address",
          "name": "owner",
          "type": "address"
        },
        {
          "indexed": true,
          "internalType": "address",
          "name": "approved",
          "type": "address"
        },
        {
          "indexed": true,
          "internalType": "uint256",
          "name": "tokenId",
          "type": "uint256"
        }
      ],
      "name": "Approval",
      "type": "event"
    },
    {
      "anonymous": false,
      "inputs": [
        {
          "indexed": true,
          "internalType": "address",
          "name": "owner",
          "type": "address"
        },
        {
          "indexed": true,
          "internalType": "address",
          "name": "operator",
          "type": "address"
        },
        {
          "indexed": false,
          "internalType": "bool",
          "name": "approved",
          "type": "bool"
        }
      ],
      "name": "ApprovalForAll",
      "type": "event"
    },
    {
      "anonymous": false,
      "inputs": [
        {
          "indexed": true,
          "internalType": "enum randomNFT.NFT",
          "name": "nfts",
          "type": "uint8"
        },
        {
          "indexed": true,
          "internalType": "address",
          "name": "minter",
          "type": "address"
        }
      ],
      "name": "NFTMINT",
      "type": "event"
    },
    {
      "anonymous": false,
      "inputs": [
        {
          "indexed": true,
          "internalType": "uint256",
          "name": "requestId",
          "type": "uint256"
        },
        {
          "indexed": true,
          "internalType": "address",
          "name": "Requester",
          "type": "address"
        }
      ],
      "name": "NFTrequest",
      "type": "event"
    },
    {
      "anonymous": false,
      "inputs": [
        {
          "indexed": true,
          "internalType": "address",
          "name": "previousOwner",
          "type": "address"
        },
        {
          "indexed": true,
          "internalType": "address",
          "name": "newOwner",
          "type": "address"
        }
      ],
      "name": "OwnershipTransferred",
      "type": "event"
    },
    {
      "anonymous": false,
      "inputs": [
        {
          "indexed": true,
          "internalType": "address",
          "name": "from",
          "type": "address"
        },
        {
          "indexed": true,
          "internalType": "address",
          "name": "to",
          "type": "address"
        },
        {
          "indexed": true,
          "internalType": "uint256",
          "name": "tokenId",
          "type": "uint256"
        }
      ],
      "name": "Transfer",
      "type": "event"
    },
    {
      "inputs": [
        {
          "internalType": "address",
          "name": "to",
          "type": "address"
        },
        {
          "internalType": "uint256",
          "name": "tokenId",
          "type": "uint256"
        }
      ],
      "name": "approve",
      "outputs": [],
      "stateMutability": "nonpayable",
      "type": "function"
    },
    {
      "inputs": [
        {
          "internalType": "address",
          "name": "owner",
          "type": "address"
        }
      ],
      "name": "balanceOf",
      "outputs": [
        {
          "internalType": "uint256",
          "name": "",
          "type": "uint256"
        }
      ],
      "stateMutability": "view",
      "type": "function"
    },
    {
      "inputs": [
        {
          "internalType": "uint256",
          "name": "tokenId",
          "type": "uint256"
        }
      ],
      "name": "getApproved",
      "outputs": [
        {
          "internalType": "address",
          "name": "",
          "type": "address"
        }
      ],
      "stateMutability": "view",
      "type": "function"
    },
    {
      "inputs": [],
      "name": "getBalance",
      "outputs": [
        {
          "internalType": "uint256",
          "name": "",
          "type": "uint256"
        }
      ],
      "stateMutability": "view",
      "type": "function"
    },
    {
      "inputs": [],
      "name": "getChanceArray",
      "outputs": [
        {
          "internalType": "uint256[3]",
          "name": "",
          "type": "uint256[3]"
        }
      ],
      "stateMutability": "pure",
      "type": "function"
    },
    {
      "inputs": [],
      "name": "getMintFee",
      "outputs": [
        {
          "internalType": "uint256",
          "name": "",
          "type": "uint256"
        }
      ],
      "stateMutability": "view",
      "type": "function"
    },
    {
      "inputs": [
        {
          "internalType": "uint256",
          "name": "index",
          "type": "uint256"
        }
      ],
      "name": "getNFTURI",
      "outputs": [
        {
          "internalType": "string",
          "name": "",
          "type": "string"
        }
      ],
      "stateMutability": "view",
      "type": "function"
    },
    {
      "inputs": [
        {
          "internalType": "uint256",
          "name": "moddedRandonNo",
          "type": "uint256"
        }
      ],
      "name": "getNFTfromModdedRandomNo",
      "outputs": [
        {
          "internalType": "enum randomNFT.NFT",
          "name": "",
          "type": "uint8"
        }
      ],
      "stateMutability": "pure",
      "type": "function"
    },
    {
      "inputs": [],
      "name": "getTokenId",
      "outputs": [
        {
          "internalType": "uint256",
          "name": "",
          "type": "uint256"
        }
      ],
      "stateMutability": "view",
      "type": "function"
    },
    {
      "inputs": [
        {
          "internalType": "address",
          "name": "owner",
          "type": "address"
        },
        {
          "internalType": "address",
          "name": "operator",
          "type": "address"
        }
      ],
      "name": "isApprovedForAll",
      "outputs": [
        {
          "internalType": "bool",
          "name": "",
          "type": "bool"
        }
      ],
      "stateMutability": "view",
      "type": "function"
    },
    {
      "inputs": [],
      "name": "name",
      "outputs": [
        {
          "internalType": "string",
          "name": "",
          "type": "string"
        }
      ],
      "stateMutability": "view",
      "type": "function"
    },
    {
      "inputs": [],
      "name": "owner",
      "outputs": [
        {
          "internalType": "address",
          "name": "",
          "type": "address"
        }
      ],
      "stateMutability": "view",
      "type": "function"
    },
    {
      "inputs": [
        {
          "internalType": "uint256",
          "name": "tokenId",
          "type": "uint256"
        }
      ],
      "name": "ownerOf",
      "outputs": [
        {
          "internalType": "address",
          "name": "",
          "type": "address"
        }
      ],
      "stateMutability": "view",
      "type": "function"
    },
    {
      "inputs": [
        {
          "internalType": "uint256",
          "name": "requestId",
          "type": "uint256"
        },
        {
          "internalType": "uint256[]",
          "name": "randomWords",
          "type": "uint256[]"
        }
      ],
      "name": "rawFulfillRandomWords",
      "outputs": [],
      "stateMutability": "nonpayable",
      "type": "function"
    },
    {
      "inputs": [],
      "name": "renounceOwnership",
      "outputs": [],
      "stateMutability": "nonpayable",
      "type": "function"
    },
    {
      "inputs": [],
      "name": "requestNft",
      "outputs": [],
      "stateMutability": "payable",
      "type": "function"
    },
    {
      "inputs": [
        {
          "internalType": "uint256",
          "name": "requestId",
          "type": "uint256"
        }
      ],
      "name": "requesterAddress",
      "outputs": [
        {
          "internalType": "address",
          "name": "",
          "type": "address"
        }
      ],
      "stateMutability": "view",
      "type": "function"
    },
    {
      "inputs": [
        {
          "internalType": "uint256",
          "name": "",
          "type": "uint256"
        }
      ],
      "name": "s_requestIdToAddress",
      "outputs": [
        {
          "internalType": "address",
          "name": "",
          "type": "address"
        }
      ],
      "stateMutability": "view",
      "type": "function"
    },
    {
      "inputs": [
        {
          "internalType": "address",
          "name": "from",
          "type": "address"
        },
        {
          "internalType": "address",
          "name": "to",
          "type": "address"
        },
        {
          "internalType": "uint256",
          "name": "tokenId",
          "type": "uint256"
        }
      ],
      "name": "safeTransferFrom",
      "outputs": [],
      "stateMutability": "nonpayable",
      "type": "function"
    },
    {
      "inputs": [
        {
          "internalType": "address",
          "name": "from",
          "type": "address"
        },
        {
          "internalType": "address",
          "name": "to",
          "type": "address"
        },
        {
          "internalType": "uint256",
          "name": "tokenId",
          "type": "uint256"
        },
        {
          "internalType": "bytes",
          "name": "data",
          "type": "bytes"
        }
      ],
      "name": "safeTransferFrom",
      "outputs": [],
      "stateMutability": "nonpayable",
      "type": "function"
    },
    {
      "inputs": [
        {
          "internalType": "address",
          "name": "operator",
          "type": "address"
        },
        {
          "internalType": "bool",
          "name": "approved",
          "type": "bool"
        }
      ],
      "name": "setApprovalForAll",
      "outputs": [],
      "stateMutability": "nonpayable",
      "type": "function"
    },
    {
      "inputs": [
        {
          "internalType": "bytes4",
          "name": "interfaceId",
          "type": "bytes4"
        }
      ],
      "name": "supportsInterface",
      "outputs": [
        {
          "internalType": "bool",
          "name": "",
          "type": "bool"
        }
      ],
      "stateMutability": "view",
      "type": "function"
    },
    {
      "inputs": [],
      "name": "symbol",
      "outputs": [
        {
          "internalType": "string",
          "name": "",
          "type": "string"
        }
      ],
      "stateMutability": "view",
      "type": "function"
    },
    {
      "inputs": [],
      "name": "tokenId",
      "outputs": [
        {
          "internalType": "uint256",
          "name": "",
          "type": "uint256"
        }
      ],
      "stateMutability": "view",
      "type": "function"
    },
    {
      "inputs": [
        {
          "internalType": "uint256",
          "name": "tokenId",
          "type": "uint256"
        }
      ],
      "name": "tokenURI",
      "outputs": [
        {
          "internalType": "string",
          "name": "",
          "type": "string"
        }
      ],
      "stateMutability": "view",
      "type": "function"
    },
    {
      "inputs": [
        {
          "internalType": "address",
          "name": "from",
          "type": "address"
        },
        {
          "internalType": "address",
          "name": "to",
          "type": "address"
        },
        {
          "internalType": "uint256",
          "name": "tokenId",
          "type": "uint256"
        }
      ],
      "name": "transferFrom",
      "outputs": [],
      "stateMutability": "nonpayable",
      "type": "function"
    },
    {
      "inputs": [
        {
          "internalType": "address",
          "name": "newOwner",
          "type": "address"
        }
      ],
      "name": "transferOwnership",
      "outputs": [],
      "stateMutability": "nonpayable",
      "type": "function"
    },
    {
      "inputs": [],
      "name": "withdraw",
      "outputs": [],
      "stateMutability": "nonpayable",
      "type": "function"
    }
  ],
  "transactionHash": "0xb3785799f73779b2bec045949c8ead062c7b2279106008cc9fe059cddb3a94fc",
  "args": [
    "0x2Ca8E0C643bDe4C2E08ab1fA0da3401AdAD7734D",
    "0x79d3d8832d904592c0bf9818b621522c988bb8b0c05cdc3b15aea1b6e8db0c15",
    "9104",
    "500000",
    [
      "ipfs://Qmc7EBTwLAYEqGH6YSUkuJTQqvDCzmSCW1AMLUHaRwq625",
      "ipfs://QmQDaRcTEVM8uthjQ7z51riFGdECtF1VGUxEvRgRN9c3Ek",
      "ipfs://QmdHgG9pt6ATMbpQNx74LdExypKcACv23UrnHKZHB8SZ1b"
    ],
    "1000000000000000000"
  ],
  "numDeployments": 1,
  "solcInputHash": "0f186a24c93856d5c0c4b3b2f1ec8f01",
  "bytecode": "0x6101206040523480156200001257600080fd5b5060405162004673380380620046738339818101604052810190620000389190620005e0565b6040518060400160405280600881526020017f44594e414d4954450000000000000000000000000000000000000000000000008152506040518060400160405280600481526020017f24444e4d00000000000000000000000000000000000000000000000000000000815250878073ffffffffffffffffffffffffffffffffffffffff1660808173ffffffffffffffffffffffffffffffffffffffff1660601b81525050508160009080519060200190620000f5929190620002a7565b5080600190805190602001906200010e929190620002a7565b5050506200013162000125620001d960201b60201c565b620001e160201b60201c565b85600860006101000a81548173ffffffffffffffffffffffffffffffffffffffff021916908373ffffffffffffffffffffffffffffffffffffffff1602179055508460c081815250508367ffffffffffffffff1660e08167ffffffffffffffff1660c01b815250508263ffffffff166101008163ffffffff1660e01b8152505081600b906003620001c492919062000338565b508060a081815250505050505050506200093b565b600033905090565b6000600760009054906101000a900473ffffffffffffffffffffffffffffffffffffffff16905081600760006101000a81548173ffffffffffffffffffffffffffffffffffffffff021916908373ffffffffffffffffffffffffffffffffffffffff1602179055508173ffffffffffffffffffffffffffffffffffffffff168173ffffffffffffffffffffffffffffffffffffffff167f8be0079c531659141344cd1fd0a4f28419497f9722a3daafe3b4186f6b6457e060405160405180910390a35050565b828054620002b590620007c5565b90600052602060002090601f016020900481019282620002d9576000855562000325565b82601f10620002f457805160ff191683800117855562000325565b8280016001018555821562000325579182015b828111156200032457825182559160200191906001019062000307565b5b5090506200033491906200039f565b5090565b8280548282559060005260206000209081019282156200038c579160200282015b828111156200038b5782518290805190602001906200037a929190620002a7565b509160200191906001019062000359565b5b5090506200039b9190620003be565b5090565b5b80821115620003ba576000816000905550600101620003a0565b5090565b5b80821115620003e25760008181620003d89190620003e6565b50600101620003bf565b5090565b508054620003f490620007c5565b6000825580601f1062000408575062000429565b601f0160209004906000526020600020908101906200042891906200039f565b5b50565b6000620004436200043d84620006c4565b6200069b565b9050808285602086028201111562000460576200045f62000894565b5b60005b85811015620004b557815167ffffffffffffffff8111156200048a57620004896200088f565b5b80860162000499898262000568565b8552602085019450602084019350505060018101905062000463565b5050509392505050565b6000620004d6620004d084620006ed565b6200069b565b905082815260208101848484011115620004f557620004f462000899565b5b620005028482856200078f565b509392505050565b6000815190506200051b81620008b9565b92915050565b600082601f8301126200053957620005386200088f565b5b6003620005488482856200042c565b91505092915050565b6000815190506200056281620008d3565b92915050565b600082601f83011262000580576200057f6200088f565b5b815162000592848260208601620004bf565b91505092915050565b600081519050620005ac81620008ed565b92915050565b600081519050620005c38162000907565b92915050565b600081519050620005da8162000921565b92915050565b60008060008060008060c087890312156200060057620005ff620008a3565b5b60006200061089828a016200050a565b96505060206200062389828a0162000551565b95505060406200063689828a01620005c9565b94505060606200064989828a01620005b2565b935050608087015167ffffffffffffffff8111156200066d576200066c6200089e565b5b6200067b89828a0162000521565b92505060a06200068e89828a016200059b565b9150509295509295509295565b6000620006a7620006ba565b9050620006b58282620007fb565b919050565b6000604051905090565b600067ffffffffffffffff821115620006e257620006e162000860565b5b602082029050919050565b600067ffffffffffffffff8211156200070b576200070a62000860565b5b6200071682620008a8565b9050602081019050919050565b6000620007308262000741565b9050919050565b6000819050919050565b600073ffffffffffffffffffffffffffffffffffffffff82169050919050565b6000819050919050565b600063ffffffff82169050919050565b600067ffffffffffffffff82169050919050565b60005b83811015620007af57808201518184015260208101905062000792565b83811115620007bf576000848401525b50505050565b60006002820490506001821680620007de57607f821691505b60208210811415620007f557620007f462000831565b5b50919050565b6200080682620008a8565b810181811067ffffffffffffffff8211171562000828576200082762000860565b5b80604052505050565b7f4e487b7100000000000000000000000000000000000000000000000000000000600052602260045260246000fd5b7f4e487b7100000000000000000000000000000000000000000000000000000000600052604160045260246000fd5b600080fd5b600080fd5b600080fd5b600080fd5b600080fd5b6000601f19601f8301169050919050565b620008c48162000723565b8114620008d057600080fd5b50565b620008de8162000737565b8114620008ea57600080fd5b50565b620008f88162000761565b81146200090457600080fd5b50565b62000912816200076b565b81146200091e57600080fd5b50565b6200092c816200077b565b81146200093857600080fd5b50565b60805160601c60a05160c05160e05160c01c6101005160e01c613cdc62000997600039600061102001526000610ffd01526000610fdc015260008181610e190152610f44015260008181610aa50152610af90152613cdc6000f3fe6080604052600436106101b65760003560e01c80636352211e116100ec578063a22cb4651161008a578063c87b56dd11610064578063c87b56dd146105ec578063d9d1baa614610629578063e985e9c514610666578063f2fde38b146106a3576101b6565b8063a22cb46514610590578063aa152491146105b9578063b88d4fde146105c3576101b6565b80637a5caab3116100c65780637a5caab3146104d2578063850a040c146104fd5780638da5cb5b1461053a57806395d89b4114610565576101b6565b80636352211e1461044157806370a082311461047e578063715018a6146104bb576101b6565b806312065fe01161015957806323b872dd1161013357806323b872dd146103ad5780633ccfd60b146103d657806342842e0e146103ed5780635dacf5f414610416576101b6565b806312065fe01461032e57806317d70f7c146103595780631fe543e314610384576101b6565b806306fdde031161019557806306fdde0314610260578063081812fc1461028b578063095ea7b3146102c857806309c06841146102f1576101b6565b8062621fda146101bb578063010a38f5146101f857806301ffc9a714610223575b600080fd5b3480156101c757600080fd5b506101e260048036038101906101dd9190612c1a565b6106cc565b6040516101ef91906131e3565b60405180910390f35b34801561020457600080fd5b5061020d61077c565b60405161021a91906133c5565b60405180910390f35b34801561022f57600080fd5b5061024a60048036038101906102459190612bc0565b610786565b604051610257919061315a565b60405180910390f35b34801561026c57600080fd5b50610275610868565b60405161028291906131e3565b60405180910390f35b34801561029757600080fd5b506102b260048036038101906102ad9190612c1a565b6108fa565b6040516102bf91906130af565b60405180910390f35b3480156102d457600080fd5b506102ef60048036038101906102ea9190612b80565b610940565b005b3480156102fd57600080fd5b5061031860048036038101906103139190612c1a565b610a58565b60405161032591906130af565b60405180910390f35b34801561033a57600080fd5b50610343610a95565b60405161035091906133c5565b60405180910390f35b34801561036557600080fd5b5061036e610a9d565b60405161037b91906133c5565b60405180910390f35b34801561039057600080fd5b506103ab60048036038101906103a69190612c74565b610aa3565b005b3480156103b957600080fd5b506103d460048036038101906103cf9190612a6a565b610b63565b005b3480156103e257600080fd5b506103eb610bc3565b005b3480156103f957600080fd5b50610414600480360381019061040f9190612a6a565b610c77565b005b34801561042257600080fd5b5061042b610c97565b604051610438919061313f565b60405180910390f35b34801561044d57600080fd5b5061046860048036038101906104639190612c1a565b610cc2565b60405161047591906130af565b60405180910390f35b34801561048a57600080fd5b506104a560048036038101906104a091906129fd565b610d49565b6040516104b291906133c5565b60405180910390f35b3480156104c757600080fd5b506104d0610e01565b005b3480156104de57600080fd5b506104e7610e15565b6040516104f491906133c5565b60405180910390f35b34801561050957600080fd5b50610524600480360381019061051f9190612c1a565b610e3d565b60405161053191906130af565b60405180910390f35b34801561054657600080fd5b5061054f610e70565b60405161055c91906130af565b60405180910390f35b34801561057157600080fd5b5061057a610e9a565b60405161058791906131e3565b60405180910390f35b34801561059c57600080fd5b506105b760048036038101906105b29190612b40565b610f2c565b005b6105c1610f42565b005b3480156105cf57600080fd5b506105ea60048036038101906105e59190612abd565b611155565b005b3480156105f857600080fd5b50610613600480360381019061060e9190612c1a565b6111b7565b60405161062091906131e3565b60405180910390f35b34801561063557600080fd5b50610650600480360381019061064b9190612c1a565b6112ca565b60405161065d91906131c8565b60405180910390f35b34801561067257600080fd5b5061068d60048036038101906106889190612a2a565b6113ac565b60405161069a919061315a565b60405180910390f35b3480156106af57600080fd5b506106ca60048036038101906106c591906129fd565b611440565b005b6060600b82815481106106e2576106e1613817565b5b9060005260206000200180546106f79061367e565b80601f01602080910402602001604051908101604052809291908181526020018280546107239061367e565b80156107705780601f1061074557610100808354040283529160200191610770565b820191906000526020600020905b81548152906001019060200180831161075357829003601f168201915b50505050509050919050565b6000600a54905090565b60007f80ac58cd000000000000000000000000000000000000000000000000000000007bffffffffffffffffffffffffffffffffffffffffffffffffffffffff1916827bffffffffffffffffffffffffffffffffffffffffffffffffffffffff1916148061085157507f5b5e139f000000000000000000000000000000000000000000000000000000007bffffffffffffffffffffffffffffffffffffffffffffffffffffffff1916827bffffffffffffffffffffffffffffffffffffffffffffffffffffffff1916145b806108615750610860826114c4565b5b9050919050565b6060600080546108779061367e565b80601f01602080910402602001604051908101604052809291908181526020018280546108a39061367e565b80156108f05780601f106108c5576101008083540402835291602001916108f0565b820191906000526020600020905b8154815290600101906020018083116108d357829003601f168201915b5050505050905090565b60006109058261152e565b6004600083815260200190815260200160002060009054906101000a900473ffffffffffffffffffffffffffffffffffffffff169050919050565b600061094b82610cc2565b90508073ffffffffffffffffffffffffffffffffffffffff168373ffffffffffffffffffffffffffffffffffffffff1614156109bc576040517f08c379a00000000000000000000000000000000000000000000000000000000081526004016109b390613385565b60405180910390fd5b8073ffffffffffffffffffffffffffffffffffffffff166109db611579565b73ffffffffffffffffffffffffffffffffffffffff161480610a0a5750610a0981610a04611579565b6113ac565b5b610a49576040517f08c379a0000000000000000000000000000000000000000000000000000000008152600401610a40906133a5565b60405180910390fd5b610a538383611581565b505050565b6000600c600083815260200190815260200160002060009054906101000a900473ffffffffffffffffffffffffffffffffffffffff169050919050565b600047905090565b600a5481565b7f000000000000000000000000000000000000000000000000000000000000000073ffffffffffffffffffffffffffffffffffffffff163373ffffffffffffffffffffffffffffffffffffffff1614610b5557337f00000000000000000000000000000000000000000000000000000000000000006040517f1cf993f4000000000000000000000000000000000000000000000000000000008152600401610b4c9291906130ca565b60405180910390fd5b610b5f828261163a565b5050565b610b74610b6e611579565b826117f7565b610bb3576040517f08c379a0000000000000000000000000000000000000000000000000000000008152600401610baa90613205565b60405180910390fd5b610bbe83838361188c565b505050565b610bcb611b86565b600047905060003373ffffffffffffffffffffffffffffffffffffffff1682604051610bf69061309a565b60006040518083038185875af1925050503d8060008114610c33576040519150601f19603f3d011682016040523d82523d6000602084013e610c38565b606091505b5050905080610c73576040517f2e4d082300000000000000000000000000000000000000000000000000000000815260040160405180910390fd5b5050565b610c9283838360405180602001604052806000815250611155565b505050565b610c9f6127ac565b6040518060600160405280600a8152602001601e81526020016064815250905090565b600080610cce83611c04565b9050600073ffffffffffffffffffffffffffffffffffffffff168173ffffffffffffffffffffffffffffffffffffffff161415610d40576040517f08c379a0000000000000000000000000000000000000000000000000000000008152600401610d3790613365565b60405180910390fd5b80915050919050565b60008073ffffffffffffffffffffffffffffffffffffffff168273ffffffffffffffffffffffffffffffffffffffff161415610dba576040517f08c379a0000000000000000000000000000000000000000000000000000000008152600401610db1906132e5565b60405180910390fd5b600360008373ffffffffffffffffffffffffffffffffffffffff1673ffffffffffffffffffffffffffffffffffffffff168152602001908152602001600020549050919050565b610e09611b86565b610e136000611c41565b565b60007f0000000000000000000000000000000000000000000000000000000000000000905090565b600c6020528060005260406000206000915054906101000a900473ffffffffffffffffffffffffffffffffffffffff1681565b6000600760009054906101000a900473ffffffffffffffffffffffffffffffffffffffff16905090565b606060018054610ea99061367e565b80601f0160208091040260200160405190810160405280929190818152602001828054610ed59061367e565b8015610f225780601f10610ef757610100808354040283529160200191610f22565b820191906000526020600020905b815481529060010190602001808311610f0557829003601f168201915b5050505050905090565b610f3e610f37611579565b8383611d07565b5050565b7f0000000000000000000000000000000000000000000000000000000000000000341015610f9c576040517fc33ccc1f00000000000000000000000000000000000000000000000000000000815260040160405180910390fd5b600860009054906101000a900473ffffffffffffffffffffffffffffffffffffffff1673ffffffffffffffffffffffffffffffffffffffff16635d3b1d307f00000000000000000000000000000000000000000000000000000000000000007f000000000000000000000000000000000000000000000000000000000000000060017f000000000000000000000000000000000000000000000000000000000000000060036040518663ffffffff1660e01b8152600401611061959493929190613175565b602060405180830381600087803b15801561107b57600080fd5b505af115801561108f573d6000803e3d6000fd5b505050506040513d601f19601f820116820180604052508101906110b39190612c47565b60098190555033600c6000600954815260200190815260200160002060006101000a81548173ffffffffffffffffffffffffffffffffffffffff021916908373ffffffffffffffffffffffffffffffffffffffff1602179055503373ffffffffffffffffffffffffffffffffffffffff166009547fd382872d237f4776224eb68fef157c9470f352a9b24b746cde1e6780b12e4ed060405160405180910390a3565b611166611160611579565b836117f7565b6111a5576040517f08c379a000000000000000000000000000000000000000000000000000000000815260040161119c90613205565b60405180910390fd5b6111b184848484611e74565b50505050565b60606111c28261152e565b60006006600084815260200190815260200160002080546111e29061367e565b80601f016020809104026020016040519081016040528092919081815260200182805461120e9061367e565b801561125b5780601f106112305761010080835404028352916020019161125b565b820191906000526020600020905b81548152906001019060200180831161123e57829003601f168201915b50505050509050600061126c611ed0565b90506000815114156112825781925050506112c5565b6000825111156112b757808260405160200161129f929190613076565b604051602081830303815290604052925050506112c5565b6112c084611ee7565b925050505b919050565b6000806000905060006112db610c97565b905060005b60038110156113745782851015801561131a575081816003811061130757611306613817565b5b60200201518361131791906134dd565b85105b1561133c57806002811115611332576113316137b9565b5b93505050506113a7565b81816003811061134f5761134e613817565b5b60200201518361135f91906134dd565b9250808061136c906136e1565b9150506112e0565b506040517f50b5964500000000000000000000000000000000000000000000000000000000815260040160405180910390fd5b919050565b6000600560008473ffffffffffffffffffffffffffffffffffffffff1673ffffffffffffffffffffffffffffffffffffffff16815260200190815260200160002060008373ffffffffffffffffffffffffffffffffffffffff1673ffffffffffffffffffffffffffffffffffffffff16815260200190815260200160002060009054906101000a900460ff16905092915050565b611448611b86565b600073ffffffffffffffffffffffffffffffffffffffff168173ffffffffffffffffffffffffffffffffffffffff1614156114b8576040517f08c379a00000000000000000000000000000000000000000000000000000000081526004016114af90613245565b60405180910390fd5b6114c181611c41565b50565b60007f01ffc9a7000000000000000000000000000000000000000000000000000000007bffffffffffffffffffffffffffffffffffffffffffffffffffffffff1916827bffffffffffffffffffffffffffffffffffffffffffffffffffffffff1916149050919050565b61153781611f4f565b611576576040517f08c379a000000000000000000000000000000000000000000000000000000000815260040161156d90613365565b60405180910390fd5b50565b600033905090565b816004600083815260200190815260200160002060006101000a81548173ffffffffffffffffffffffffffffffffffffffff021916908373ffffffffffffffffffffffffffffffffffffffff160217905550808273ffffffffffffffffffffffffffffffffffffffff166115f483610cc2565b73ffffffffffffffffffffffffffffffffffffffff167f8c5be1e5ebec7d5bd14f71427d1e84f3dd0314c0f7b2291e5b200ac8c7c3b92560405160405180910390a45050565b6000600c600084815260200190815260200160002060009054906101000a900473ffffffffffffffffffffffffffffffffffffffff169050600a54600a600082825461168691906134dd565b925050819055506000600a54905060006064846000815181106116ac576116ab613817565b5b60200260200101516116be919061372a565b905060006116cb826112ca565b90506116d78484611f90565b61179983600b8360028111156116f0576116ef6137b9565b5b8154811061170157611700613817565b5b9060005260206000200180546117169061367e565b80601f01602080910402602001604051908101604052809291908181526020018280546117429061367e565b801561178f5780601f106117645761010080835404028352916020019161178f565b820191906000526020600020905b81548152906001019060200180831161177257829003601f168201915b5050505050611fae565b8373ffffffffffffffffffffffffffffffffffffffff168160028111156117c3576117c26137b9565b5b7ff7a4f0ad408ae369a12769682a2778a04e723f4064512aed71e94cb70fde607560405160405180910390a3505050505050565b60008061180383610cc2565b90508073ffffffffffffffffffffffffffffffffffffffff168473ffffffffffffffffffffffffffffffffffffffff161480611845575061184481856113ac565b5b8061188357508373ffffffffffffffffffffffffffffffffffffffff1661186b846108fa565b73ffffffffffffffffffffffffffffffffffffffff16145b91505092915050565b8273ffffffffffffffffffffffffffffffffffffffff166118ac82610cc2565b73ffffffffffffffffffffffffffffffffffffffff1614611902576040517f08c379a00000000000000000000000000000000000000000000000000000000081526004016118f990613265565b60405180910390fd5b600073ffffffffffffffffffffffffffffffffffffffff168273ffffffffffffffffffffffffffffffffffffffff161415611972576040517f08c379a0000000000000000000000000000000000000000000000000000000008152600401611969906132a5565b60405180910390fd5b61197f8383836001612022565b8273ffffffffffffffffffffffffffffffffffffffff1661199f82610cc2565b73ffffffffffffffffffffffffffffffffffffffff16146119f5576040517f08c379a00000000000000000000000000000000000000000000000000000000081526004016119ec90613265565b60405180910390fd5b6004600082815260200190815260200160002060006101000a81549073ffffffffffffffffffffffffffffffffffffffff02191690556001600360008573ffffffffffffffffffffffffffffffffffffffff1673ffffffffffffffffffffffffffffffffffffffff168152602001908152602001600020600082825403925050819055506001600360008473ffffffffffffffffffffffffffffffffffffffff1673ffffffffffffffffffffffffffffffffffffffff16815260200190815260200160002060008282540192505081905550816002600083815260200190815260200160002060006101000a81548173ffffffffffffffffffffffffffffffffffffffff021916908373ffffffffffffffffffffffffffffffffffffffff160217905550808273ffffffffffffffffffffffffffffffffffffffff168473ffffffffffffffffffffffffffffffffffffffff167fddf252ad1be2c89b69c2b068fc378daa952ba7f163c4a11628f55a4df523b3ef60405160405180910390a4611b818383836001612148565b505050565b611b8e611579565b73ffffffffffffffffffffffffffffffffffffffff16611bac610e70565b73ffffffffffffffffffffffffffffffffffffffff1614611c02576040517f08c379a0000000000000000000000000000000000000000000000000000000008152600401611bf990613345565b60405180910390fd5b565b60006002600083815260200190815260200160002060009054906101000a900473ffffffffffffffffffffffffffffffffffffffff169050919050565b6000600760009054906101000a900473ffffffffffffffffffffffffffffffffffffffff16905081600760006101000a81548173ffffffffffffffffffffffffffffffffffffffff021916908373ffffffffffffffffffffffffffffffffffffffff1602179055508173ffffffffffffffffffffffffffffffffffffffff168173ffffffffffffffffffffffffffffffffffffffff167f8be0079c531659141344cd1fd0a4f28419497f9722a3daafe3b4186f6b6457e060405160405180910390a35050565b8173ffffffffffffffffffffffffffffffffffffffff168373ffffffffffffffffffffffffffffffffffffffff161415611d76576040517f08c379a0000000000000000000000000000000000000000000000000000000008152600401611d6d906132c5565b60405180910390fd5b80600560008573ffffffffffffffffffffffffffffffffffffffff1673ffffffffffffffffffffffffffffffffffffffff16815260200190815260200160002060008473ffffffffffffffffffffffffffffffffffffffff1673ffffffffffffffffffffffffffffffffffffffff16815260200190815260200160002060006101000a81548160ff0219169083151502179055508173ffffffffffffffffffffffffffffffffffffffff168373ffffffffffffffffffffffffffffffffffffffff167f17307eab39ab6107e8899845ad3d59bd9653f200f220920489ca2b5937696c3183604051611e67919061315a565b60405180910390a3505050565b611e7f84848461188c565b611e8b8484848461214e565b611eca576040517f08c379a0000000000000000000000000000000000000000000000000000000008152600401611ec190613225565b60405180910390fd5b50505050565b606060405180602001604052806000815250905090565b6060611ef28261152e565b6000611efc611ed0565b90506000815111611f1c5760405180602001604052806000815250611f47565b80611f26846122e5565b604051602001611f37929190613076565b6040516020818303038152906040525b915050919050565b60008073ffffffffffffffffffffffffffffffffffffffff16611f7183611c04565b73ffffffffffffffffffffffffffffffffffffffff1614159050919050565b611faa8282604051806020016040528060008152506123bd565b5050565b611fb782611f4f565b611ff6576040517f08c379a0000000000000000000000000000000000000000000000000000000008152600401611fed90613305565b60405180910390fd5b8060066000848152602001908152602001600020908051906020019061201d9291906127ce565b505050565b600181111561214257600073ffffffffffffffffffffffffffffffffffffffff168473ffffffffffffffffffffffffffffffffffffffff16146120b65780600360008673ffffffffffffffffffffffffffffffffffffffff1673ffffffffffffffffffffffffffffffffffffffff16815260200190815260200160002060008282546120ae9190613533565b925050819055505b600073ffffffffffffffffffffffffffffffffffffffff168373ffffffffffffffffffffffffffffffffffffffff16146121415780600360008573ffffffffffffffffffffffffffffffffffffffff1673ffffffffffffffffffffffffffffffffffffffff168152602001908152602001600020600082825461213991906134dd565b925050819055505b5b50505050565b50505050565b600061216f8473ffffffffffffffffffffffffffffffffffffffff16612418565b156122d8578373ffffffffffffffffffffffffffffffffffffffff1663150b7a02612198611579565b8786866040518563ffffffff1660e01b81526004016121ba94939291906130f3565b602060405180830381600087803b1580156121d457600080fd5b505af192505050801561220557506040513d601f19601f820116820180604052508101906122029190612bed565b60015b612288573d8060008114612235576040519150601f19603f3d011682016040523d82523d6000602084013e61223a565b606091505b50600081511415612280576040517f08c379a000000000000000000000000000000000000000000000000000000000815260040161227790613225565b60405180910390fd5b805181602001fd5b63150b7a0260e01b7bffffffffffffffffffffffffffffffffffffffffffffffffffffffff1916817bffffffffffffffffffffffffffffffffffffffffffffffffffffffff1916149150506122dd565b600190505b949350505050565b6060600060016122f48461243b565b01905060008167ffffffffffffffff81111561231357612312613846565b5b6040519080825280601f01601f1916602001820160405280156123455781602001600182028036833780820191505090505b509050600082602001820190505b6001156123b2578080600190039150507f3031323334353637383961626364656600000000000000000000000000000000600a86061a8153600a858161239c5761239b61378a565b5b04945060008514156123ad576123b2565b612353565b819350505050919050565b6123c7838361258e565b6123d4600084848461214e565b612413576040517f08c379a000000000000000000000000000000000000000000000000000000000815260040161240a90613225565b60405180910390fd5b505050565b6000808273ffffffffffffffffffffffffffffffffffffffff163b119050919050565b600080600090507a184f03e93ff9f4daa797ed6e38ed64bf6a1f0100000000000000008310612499577a184f03e93ff9f4daa797ed6e38ed64bf6a1f010000000000000000838161248f5761248e61378a565b5b0492506040810190505b6d04ee2d6d415b85acef810000000083106124d6576d04ee2d6d415b85acef810000000083816124cc576124cb61378a565b5b0492506020810190505b662386f26fc10000831061250557662386f26fc1000083816124fb576124fa61378a565b5b0492506010810190505b6305f5e100831061252e576305f5e10083816125245761252361378a565b5b0492506008810190505b61271083106125535761271083816125495761254861378a565b5b0492506004810190505b60648310612576576064838161256c5761256b61378a565b5b0492506002810190505b600a8310612585576001810190505b80915050919050565b600073ffffffffffffffffffffffffffffffffffffffff168273ffffffffffffffffffffffffffffffffffffffff1614156125fe576040517f08c379a00000000000000000000000000000000000000000000000000000000081526004016125f590613325565b60405180910390fd5b61260781611f4f565b15612647576040517f08c379a000000000000000000000000000000000000000000000000000000000815260040161263e90613285565b60405180910390fd5b612655600083836001612022565b61265e81611f4f565b1561269e576040517f08c379a000000000000000000000000000000000000000000000000000000000815260040161269590613285565b60405180910390fd5b6001600360008473ffffffffffffffffffffffffffffffffffffffff1673ffffffffffffffffffffffffffffffffffffffff16815260200190815260200160002060008282540192505081905550816002600083815260200190815260200160002060006101000a81548173ffffffffffffffffffffffffffffffffffffffff021916908373ffffffffffffffffffffffffffffffffffffffff160217905550808273ffffffffffffffffffffffffffffffffffffffff16600073ffffffffffffffffffffffffffffffffffffffff167fddf252ad1be2c89b69c2b068fc378daa952ba7f163c4a11628f55a4df523b3ef60405160405180910390a46127a8600083836001612148565b5050565b6040518060600160405280600390602082028036833780820191505090505090565b8280546127da9061367e565b90600052602060002090601f0160209004810192826127fc5760008555612843565b82601f1061281557805160ff1916838001178555612843565b82800160010185558215612843579182015b82811115612842578251825591602001919060010190612827565b5b5090506128509190612854565b5090565b5b8082111561286d576000816000905550600101612855565b5090565b600061288461287f84613405565b6133e0565b905080838252602082019050828560208602820111156128a7576128a661387a565b5b60005b858110156128d757816128bd88826129d3565b8452602084019350602083019250506001810190506128aa565b5050509392505050565b60006128f46128ef84613431565b6133e0565b9050828152602081018484840111156129105761290f61387f565b5b61291b84828561363c565b509392505050565b60008135905061293281613c4a565b92915050565b600082601f83011261294d5761294c613875565b5b813561295d848260208601612871565b91505092915050565b60008135905061297581613c61565b92915050565b60008135905061298a81613c78565b92915050565b60008151905061299f81613c78565b92915050565b600082601f8301126129ba576129b9613875565b5b81356129ca8482602086016128e1565b91505092915050565b6000813590506129e281613c8f565b92915050565b6000815190506129f781613c8f565b92915050565b600060208284031215612a1357612a12613889565b5b6000612a2184828501612923565b91505092915050565b60008060408385031215612a4157612a40613889565b5b6000612a4f85828601612923565b9250506020612a6085828601612923565b9150509250929050565b600080600060608486031215612a8357612a82613889565b5b6000612a9186828701612923565b9350506020612aa286828701612923565b9250506040612ab3868287016129d3565b9150509250925092565b60008060008060808587031215612ad757612ad6613889565b5b6000612ae587828801612923565b9450506020612af687828801612923565b9350506040612b07878288016129d3565b925050606085013567ffffffffffffffff811115612b2857612b27613884565b5b612b34878288016129a5565b91505092959194509250565b60008060408385031215612b5757612b56613889565b5b6000612b6585828601612923565b9250506020612b7685828601612966565b9150509250929050565b60008060408385031215612b9757612b96613889565b5b6000612ba585828601612923565b9250506020612bb6858286016129d3565b9150509250929050565b600060208284031215612bd657612bd5613889565b5b6000612be48482850161297b565b91505092915050565b600060208284031215612c0357612c02613889565b5b6000612c1184828501612990565b91505092915050565b600060208284031215612c3057612c2f613889565b5b6000612c3e848285016129d3565b91505092915050565b600060208284031215612c5d57612c5c613889565b5b6000612c6b848285016129e8565b91505092915050565b60008060408385031215612c8b57612c8a613889565b5b6000612c99858286016129d3565b925050602083013567ffffffffffffffff811115612cba57612cb9613884565b5b612cc685828601612938565b9150509250929050565b6000612cdc838361303a565b60208301905092915050565b612cf181613567565b82525050565b612d008161346c565b612d0a818461349a565b9250612d1582613462565b8060005b83811015612d46578151612d2d8782612cd0565b9650612d388361348d565b925050600181019050612d19565b505050505050565b612d5781613579565b82525050565b612d6681613585565b82525050565b6000612d7782613477565b612d8181856134a5565b9350612d9181856020860161364b565b612d9a8161388e565b840191505092915050565b612dae8161362a565b82525050565b6000612dbf82613482565b612dc981856134c1565b9350612dd981856020860161364b565b612de28161388e565b840191505092915050565b6000612df882613482565b612e0281856134d2565b9350612e1281856020860161364b565b80840191505092915050565b6000612e2b602d836134c1565b9150612e368261389f565b604082019050919050565b6000612e4e6032836134c1565b9150612e59826138ee565b604082019050919050565b6000612e716026836134c1565b9150612e7c8261393d565b604082019050919050565b6000612e946025836134c1565b9150612e9f8261398c565b604082019050919050565b6000612eb7601c836134c1565b9150612ec2826139db565b602082019050919050565b6000612eda6024836134c1565b9150612ee582613a04565b604082019050919050565b6000612efd6019836134c1565b9150612f0882613a53565b602082019050919050565b6000612f206029836134c1565b9150612f2b82613a7c565b604082019050919050565b6000612f43602e836134c1565b9150612f4e82613acb565b604082019050919050565b6000612f666020836134c1565b9150612f7182613b1a565b602082019050919050565b6000612f896020836134c1565b9150612f9482613b43565b602082019050919050565b6000612fac6018836134c1565b9150612fb782613b6c565b602082019050919050565b6000612fcf6021836134c1565b9150612fda82613b95565b604082019050919050565b6000612ff26000836134b6565b9150612ffd82613be4565b600082019050919050565b6000613015603d836134c1565b915061302082613be7565b604082019050919050565b613034816135ce565b82525050565b613043816135fc565b82525050565b613052816135fc565b82525050565b61306181613606565b82525050565b61307081613616565b82525050565b60006130828285612ded565b915061308e8284612ded565b91508190509392505050565b60006130a582612fe5565b9150819050919050565b60006020820190506130c46000830184612ce8565b92915050565b60006040820190506130df6000830185612ce8565b6130ec6020830184612ce8565b9392505050565b60006080820190506131086000830187612ce8565b6131156020830186612ce8565b6131226040830185613049565b81810360608301526131348184612d6c565b905095945050505050565b60006060820190506131546000830184612cf7565b92915050565b600060208201905061316f6000830184612d4e565b92915050565b600060a08201905061318a6000830188612d5d565b6131976020830187613067565b6131a4604083018661302b565b6131b16060830185613058565b6131be6080830184613058565b9695505050505050565b60006020820190506131dd6000830184612da5565b92915050565b600060208201905081810360008301526131fd8184612db4565b905092915050565b6000602082019050818103600083015261321e81612e1e565b9050919050565b6000602082019050818103600083015261323e81612e41565b9050919050565b6000602082019050818103600083015261325e81612e64565b9050919050565b6000602082019050818103600083015261327e81612e87565b9050919050565b6000602082019050818103600083015261329e81612eaa565b9050919050565b600060208201905081810360008301526132be81612ecd565b9050919050565b600060208201905081810360008301526132de81612ef0565b9050919050565b600060208201905081810360008301526132fe81612f13565b9050919050565b6000602082019050818103600083015261331e81612f36565b9050919050565b6000602082019050818103600083015261333e81612f59565b9050919050565b6000602082019050818103600083015261335e81612f7c565b9050919050565b6000602082019050818103600083015261337e81612f9f565b9050919050565b6000602082019050818103600083015261339e81612fc2565b9050919050565b600060208201905081810360008301526133be81613008565b9050919050565b60006020820190506133da6000830184613049565b92915050565b60006133ea6133fb565b90506133f682826136b0565b919050565b6000604051905090565b600067ffffffffffffffff8211156134205761341f613846565b5b602082029050602081019050919050565b600067ffffffffffffffff82111561344c5761344b613846565b5b6134558261388e565b9050602081019050919050565b6000819050919050565b600060039050919050565b600081519050919050565b600081519050919050565b6000602082019050919050565b600081905092915050565b600082825260208201905092915050565b600081905092915050565b600082825260208201905092915050565b600081905092915050565b60006134e8826135fc565b91506134f3836135fc565b9250827fffffffffffffffffffffffffffffffffffffffffffffffffffffffffffffffff038211156135285761352761375b565b5b828201905092915050565b600061353e826135fc565b9150613549836135fc565b92508282101561355c5761355b61375b565b5b828203905092915050565b6000613572826135dc565b9050919050565b60008115159050919050565b6000819050919050565b60007fffffffff0000000000000000000000000000000000000000000000000000000082169050919050565b60008190506135c982613c36565b919050565b600061ffff82169050919050565b600073ffffffffffffffffffffffffffffffffffffffff82169050919050565b6000819050919050565b600063ffffffff82169050919050565b600067ffffffffffffffff82169050919050565b6000613635826135bb565b9050919050565b82818337600083830152505050565b60005b8381101561366957808201518184015260208101905061364e565b83811115613678576000848401525b50505050565b6000600282049050600182168061369657607f821691505b602082108114156136aa576136a96137e8565b5b50919050565b6136b98261388e565b810181811067ffffffffffffffff821117156136d8576136d7613846565b5b80604052505050565b60006136ec826135fc565b91507fffffffffffffffffffffffffffffffffffffffffffffffffffffffffffffffff82141561371f5761371e61375b565b5b600182019050919050565b6000613735826135fc565b9150613740836135fc565b9250826137505761374f61378a565b5b828206905092915050565b7f4e487b7100000000000000000000000000000000000000000000000000000000600052601160045260246000fd5b7f4e487b7100000000000000000000000000000000000000000000000000000000600052601260045260246000fd5b7f4e487b7100000000000000000000000000000000000000000000000000000000600052602160045260246000fd5b7f4e487b7100000000000000000000000000000000000000000000000000000000600052602260045260246000fd5b7f4e487b7100000000000000000000000000000000000000000000000000000000600052603260045260246000fd5b7f4e487b7100000000000000000000000000000000000000000000000000000000600052604160045260246000fd5b600080fd5b600080fd5b600080fd5b600080fd5b600080fd5b6000601f19601f8301169050919050565b7f4552433732313a2063616c6c6572206973206e6f7420746f6b656e206f776e6560008201527f72206f7220617070726f76656400000000000000000000000000000000000000602082015250565b7f4552433732313a207472616e7366657220746f206e6f6e20455243373231526560008201527f63656976657220696d706c656d656e7465720000000000000000000000000000602082015250565b7f4f776e61626c653a206e6577206f776e657220697320746865207a65726f206160008201527f6464726573730000000000000000000000000000000000000000000000000000602082015250565b7f4552433732313a207472616e736665722066726f6d20696e636f72726563742060008201527f6f776e6572000000000000000000000000000000000000000000000000000000602082015250565b7f4552433732313a20746f6b656e20616c7265616479206d696e74656400000000600082015250565b7f4552433732313a207472616e7366657220746f20746865207a65726f2061646460008201527f7265737300000000000000000000000000000000000000000000000000000000602082015250565b7f4552433732313a20617070726f766520746f2063616c6c657200000000000000600082015250565b7f4552433732313a2061646472657373207a65726f206973206e6f74206120766160008201527f6c6964206f776e65720000000000000000000000000000000000000000000000602082015250565b7f45524337323155524953746f726167653a2055524920736574206f66206e6f6e60008201527f6578697374656e7420746f6b656e000000000000000000000000000000000000602082015250565b7f4552433732313a206d696e7420746f20746865207a65726f2061646472657373600082015250565b7f4f776e61626c653a2063616c6c6572206973206e6f7420746865206f776e6572600082015250565b7f4552433732313a20696e76616c696420746f6b656e2049440000000000000000600082015250565b7f4552433732313a20617070726f76616c20746f2063757272656e74206f776e6560008201527f7200000000000000000000000000000000000000000000000000000000000000602082015250565b50565b7f4552433732313a20617070726f76652063616c6c6572206973206e6f7420746f60008201527f6b656e206f776e6572206f7220617070726f76656420666f7220616c6c000000602082015250565b60038110613c4757613c466137b9565b5b50565b613c5381613567565b8114613c5e57600080fd5b50565b613c6a81613579565b8114613c7557600080fd5b50565b613c818161358f565b8114613c8c57600080fd5b50565b613c98816135fc565b8114613ca357600080fd5b5056fea2646970667358221220a7970a2f24d985b1f6aec9611dd0e020727327a9594cc00c40fb7f427e4a805f64736f6c63430008070033",
  "devdoc": {
    "kind": "dev",
    "methods": {
      "approve(address,uint256)": {
        "details": "See {IERC721-approve}."
      },
      "balanceOf(address)": {
        "details": "See {IERC721-balanceOf}."
      },
      "getApproved(uint256)": {
        "details": "See {IERC721-getApproved}."
      },
      "isApprovedForAll(address,address)": {
        "details": "See {IERC721-isApprovedForAll}."
      },
      "name()": {
        "details": "See {IERC721Metadata-name}."
      },
      "owner()": {
        "details": "Returns the address of the current owner."
      },
      "ownerOf(uint256)": {
        "details": "See {IERC721-ownerOf}."
      },
      "renounceOwnership()": {
        "details": "Leaves the contract without owner. It will not be possible to call `onlyOwner` functions anymore. Can only be called by the current owner. NOTE: Renouncing ownership will leave the contract without an owner, thereby removing any functionality that is only available to the owner."
      },
      "safeTransferFrom(address,address,uint256)": {
        "details": "See {IERC721-safeTransferFrom}."
      },
      "safeTransferFrom(address,address,uint256,bytes)": {
        "details": "See {IERC721-safeTransferFrom}."
      },
      "setApprovalForAll(address,bool)": {
        "details": "See {IERC721-setApprovalForAll}."
      },
      "supportsInterface(bytes4)": {
        "details": "See {IERC165-supportsInterface}."
      },
      "symbol()": {
        "details": "See {IERC721Metadata-symbol}."
      },
      "tokenURI(uint256)": {
        "details": "See {IERC721Metadata-tokenURI}."
      },
      "transferFrom(address,address,uint256)": {
        "details": "See {IERC721-transferFrom}."
      },
      "transferOwnership(address)": {
        "details": "Transfers ownership of the contract to a new account (`newOwner`). Can only be called by the current owner."
      }
    },
    "version": 1
  },
  "userdoc": {
    "kind": "user",
    "methods": {
      "getChanceArray()": {
        "notice": "A Function to give us each % of rarity our NFTs should have 1.DOG nft 2. DNM 3. art"
      },
      "getNFTfromModdedRandomNo(uint256)": {
        "notice": "A function to get our NFT based on the modded Random Number we got."
      }
    },
    "version": 1
  },
  "storageLayout": {
    "storage": [
      {
        "astId": 292,
        "contract": "contracts/randomIpfsNft.sol:randomNFT",
        "label": "_name",
        "offset": 0,
        "slot": "0",
        "type": "t_string_storage"
      },
      {
        "astId": 294,
        "contract": "contracts/randomIpfsNft.sol:randomNFT",
        "label": "_symbol",
        "offset": 0,
        "slot": "1",
        "type": "t_string_storage"
      },
      {
        "astId": 298,
        "contract": "contracts/randomIpfsNft.sol:randomNFT",
        "label": "_owners",
        "offset": 0,
        "slot": "2",
        "type": "t_mapping(t_uint256,t_address)"
      },
      {
        "astId": 302,
        "contract": "contracts/randomIpfsNft.sol:randomNFT",
        "label": "_balances",
        "offset": 0,
        "slot": "3",
        "type": "t_mapping(t_address,t_uint256)"
      },
      {
        "astId": 306,
        "contract": "contracts/randomIpfsNft.sol:randomNFT",
        "label": "_tokenApprovals",
        "offset": 0,
        "slot": "4",
        "type": "t_mapping(t_uint256,t_address)"
      },
      {
        "astId": 312,
        "contract": "contracts/randomIpfsNft.sol:randomNFT",
        "label": "_operatorApprovals",
        "offset": 0,
        "slot": "5",
        "type": "t_mapping(t_address,t_mapping(t_address,t_bool))"
      },
      {
        "astId": 1358,
        "contract": "contracts/randomIpfsNft.sol:randomNFT",
        "label": "_tokenURIs",
        "offset": 0,
        "slot": "6",
        "type": "t_mapping(t_uint256,t_string_storage)"
      },
      {
        "astId": 161,
        "contract": "contracts/randomIpfsNft.sol:randomNFT",
        "label": "_owner",
        "offset": 0,
        "slot": "7",
        "type": "t_address"
      },
      {
        "astId": 2950,
        "contract": "contracts/randomIpfsNft.sol:randomNFT",
        "label": "i_vrfInterface",
        "offset": 0,
        "slot": "8",
        "type": "t_contract(VRFCoordinatorV2Interface)153"
      },
      {
        "astId": 2954,
        "contract": "contracts/randomIpfsNft.sol:randomNFT",
        "label": "_requestId",
        "offset": 0,
        "slot": "9",
        "type": "t_uint256"
      },
      {
        "astId": 2971,
        "contract": "contracts/randomIpfsNft.sol:randomNFT",
        "label": "tokenId",
        "offset": 0,
        "slot": "10",
        "type": "t_uint256"
      },
      {
        "astId": 2987,
        "contract": "contracts/randomIpfsNft.sol:randomNFT",
        "label": "_NFT_URI",
        "offset": 0,
        "slot": "11",
        "type": "t_array(t_string_storage)dyn_storage"
      },
      {
        "astId": 2991,
        "contract": "contracts/randomIpfsNft.sol:randomNFT",
        "label": "s_requestIdToAddress",
        "offset": 0,
        "slot": "12",
        "type": "t_mapping(t_uint256,t_address)"
      }
    ],
    "types": {
      "t_address": {
        "encoding": "inplace",
        "label": "address",
        "numberOfBytes": "20"
      },
      "t_array(t_string_storage)dyn_storage": {
        "base": "t_string_storage",
        "encoding": "dynamic_array",
        "label": "string[]",
        "numberOfBytes": "32"
      },
      "t_bool": {
        "encoding": "inplace",
        "label": "bool",
        "numberOfBytes": "1"
      },
      "t_contract(VRFCoordinatorV2Interface)153": {
        "encoding": "inplace",
        "label": "contract VRFCoordinatorV2Interface",
        "numberOfBytes": "20"
      },
      "t_mapping(t_address,t_bool)": {
        "encoding": "mapping",
        "key": "t_address",
        "label": "mapping(address => bool)",
        "numberOfBytes": "32",
        "value": "t_bool"
      },
      "t_mapping(t_address,t_mapping(t_address,t_bool))": {
        "encoding": "mapping",
        "key": "t_address",
        "label": "mapping(address => mapping(address => bool))",
        "numberOfBytes": "32",
        "value": "t_mapping(t_address,t_bool)"
      },
      "t_mapping(t_address,t_uint256)": {
        "encoding": "mapping",
        "key": "t_address",
        "label": "mapping(address => uint256)",
        "numberOfBytes": "32",
        "value": "t_uint256"
      },
      "t_mapping(t_uint256,t_address)": {
        "encoding": "mapping",
        "key": "t_uint256",
        "label": "mapping(uint256 => address)",
        "numberOfBytes": "32",
        "value": "t_address"
      },
      "t_mapping(t_uint256,t_string_storage)": {
        "encoding": "mapping",
        "key": "t_uint256",
        "label": "mapping(uint256 => string)",
        "numberOfBytes": "32",
        "value": "t_string_storage"
      },
      "t_string_storage": {
        "encoding": "bytes",
        "label": "string",
        "numberOfBytes": "32"
      },
      "t_uint256": {
        "encoding": "inplace",
        "label": "uint256",
        "numberOfBytes": "32"
      }
    }
  }
}